:020000041004E6
:1000000000600020796D0410F95F0410DD410410D8
:10001000AA5555AA45554C420000000000000000BA
:10002000000000000000000000000000DB8404105D
:100030000000000000000000F56504106D8B041046
:1000400003280410C9600410000000000000000034
:100050006D8F0410D9840410150D0410F99004104C
:100060000000000000000000000000000000000090
:100070000000000055030410E1410410DF410410AA
:1000800000000000775A0410795A04107B5A0410BB
:100090007D5A0410996D0410E3600410B912041025
:1000A0000000000000000000000000000000000050
:1000B0000000000000000000000000000000000040
:1000C000EFF31482EFF309811C4880F31488BFF327
:1000D0006F8FF0B543464C4655465E466746F8B4CA
:1000E000174CEFF30883236006B4164C2068164CB7
:1000F0002060164C2068164C2060164C2068164C68
:100100002060164C276800202060BFF34F8F30BF5F
:1001100027600B4C246884F3088882B003BCF8BCC9
:100120009846A146AA46B346BC46F0BC04BC80F340
:10013000098881F31488BFF36F8F10470000000017
:100140000800002004ED00E0E402002024ED00E0BF
:10015000E802002000E200E0EC020020080020405D
:100160000448854600F0A8F80048004785E20410DE
:10017000C046C0460060002030B50B460146002056
:100180002022012409E00D46D5409D4205D31D469D
:100190009540491B2546954040191546521E002D95
:1001A000F1DC30BD10B5441A0346944209D28318DD
:1001B000891803E0491E0C785B1E1C70521EF9D290
:1001C00010BD0C460443A40703D009E010C9121F58
:1001D00010C3042AFAD203E00C781C70491C5B1C83
:1001E000521EF9D210BDD2B201E00270401C491E6D
:1001F000FBD270470022F6E710B513460A460446C4
:100200001946FFF7F0FF204610BD30B50446002028
:10021000034600E05B1C934203D2E05CCD5C401BD4
:10022000F8D030BD0321001D401E037812021A438E
:10023000491EF9D510467047F0B51FB40646002098
:1002400082B005464024019100901BE001992246AE
:100250000F46304600F042F8049A059B801A9941F7
:1002600010D310461946224600F016F8361A8F4170
:100270000197224601200021009F00F00DF8381858
:100280004D4100902046641E0028DFDC019B009851
:100290002946324607B0F0BD10B5202A04DB0146DE
:1002A000203A9140002010BD914020239C1A034623
:1002B000E3401943904010BD064C0125064E05E071
:1002C000E36807CC2B430C3C98471034B442F7D377
:1002D000FFF74AFFC40705106408051010B5202A6F
:1002E00004DB0846203AD040002110BD0B46D34025
:1002F000D0402024A21A91400843194610BD70B581
:100300008C180578401C6B075B0F01D10378401CEB
:100310002A1106D10278401C03E006780E70401CBA
:10032000491C5B1EF9D12B0705D40023521E0DD4A6
:100330000B70491CFAE70378401CCB1A921C03E0AF
:100340001D780D70491C5B1C521EF9D5A142D8D3F3
:10035000002070BD70470000F0B5424C85B0E068E9
:10036000800705D505F08CFBE06802218843E0603A
:1003700008F07EF93C4F00253878012827D13B480A
:10038000007863281FD06D2809D072281ED1BFF3D2
:100390004F8F38493648C860BFF34F8FFEE70920BA
:1003A00008F0B2F8092008F0AFF8092008F0ACF81E
:1003B0006D2008F0A9F805262F48805D08F0A4F804
:1003C000761EF9D502E02D49012008703D702C4AB7
:1003D000012710782B497F02012801D00D6021E010
:1003E0000868FF23401CF533086098421AD324485C
:1003F000254905702348254A0560002009230E7809
:1004000008E0E1885354491C89B2E180B94200D127
:10041000E580401CB042F4DB1B48057018480570AD
:10042000184805600126E1882089814218D01749C3
:100430000096081803901648029601950288154800
:1004400001230188208809F0FDFF2089401C80B22B
:100450002081B84200D125811E2000F013FFE2E781
:1004600005B0F0BD08030020F002002001030020C9
:100470000400FA0500ED00E002030020FF02002066
:10048000F2020020F4020020F1020020900500207A
:100490001A030020180300207FB505469868012242
:1004A00002739A681C4651739868022202A90E30A2
:1004B00005F00FFEA16805200D74E0807FBD70B5CA
:1004C000064608881D460C46001D81B213460222CE
:1004D000304605F067FF21882B46891C2180091DC5
:1004E00089B20222304605F05DFF2088801C208002
:1004F00070BDFEB500240E462746056845E0286815
:100500000290A968022230460D3105F0E2FD3088E4
:10051000B84209D087B2384602F0A8FD014601AAC8
:10052000384603F035FC019CA968022268460F3169
:1005300005F0CFFDE888401F81B22220005D002831
:1005400006D001280BD0002811D0012814D01BE0C0
:10055000E08B6A461288401E904206D307E0208C4A
:100560006A461288401E904206D20720FEBD6846A9
:1005700000880818E18B03E0684600880818218C81
:10058000884201D90D20FEBD029D002DB7D100206B
:100590003080FEBDFFB5C8880025401E83B00E46E2
:1005A00087B2012427E0B0680222083001196846AA
:1005B000091D05F08EFD6846008802F057FD010018
:1005C0001DD068460A8D0088824212D001AA03F02D
:1005D000DFFB00280DD101992620405C400708D59B
:1005E00006986A00101802221C3105F072FD6D1C7D
:1005F000ADB2A41CA4B2BC42D5D30C98058007B000
:10060000F0BDFFB5074683B0002000900D9802F0C2
:100610002DFD069905460C310191002826D008379A
:10062000BD4223D0288D0E9988421FD80D9988424B
:1006300013D30E99884210D8294602222A310198F4
:1006400005F047FD10220C99069805F03EFD0028A4
:1006500009D0298D0E98814208D02E462C6A20366A
:10066000B4423FD140E005980021018007B0F0BDC1
:10067000A18B0D98814234D30E98814234D8204604
:1006800020300290C078012808D02046083010227F
:100690000C9905F01AFD002808D022E0214602221C
:1006A0000831019805F015FD0698F0E70298807969
:1006B000400716D50098002801D1E08B0090E18B0F
:1006C000814211D10598022200884100049808183F
:1006D00021461C3105F0FDFC059805990088401C59
:1006E00008802468B442C3D12D6899E706480021E8
:1006F00002684B2040011018017041700321817085
:10070000C1700020704700006803002070B50D4DD7
:10071000044601232868D902401890261A46C06C66
:10072000314609F0A3FB010003D030464C6009F0CC
:1007300089FB4B202968400109180878401C087083
:1007400070BD00006803002010B504460020208220
:10075000A074A168A16161612060204604F066FD7B
:10076000452801D0412010BDA08803210BF03EFD9B
:1007700004460CF019FA002813D072B60A48012278
:100780000168492040010918487EA240104348767C
:1007900062B600200EF038FA002802D000200AF0DD
:1007A0005DFB002010BD00006803002070B5C17C17
:1007B0000E4D4906490EC174044601232868D9022A
:1007C000401890260022C06C314609F04FFB010012
:1007D00003D030464C6009F035FB4B2029684001BE
:1007E00009184878401C487070BD0000680300205C
:1007F000F0B52BA00FC893B006AC0FC42CA00FC847
:100800000FC42FA00FC80FC4102206A9304805F04E
:1008100060FC304C062301222D490220009409F08F
:10082000ACFC00282FD12A4810220AA9103005F06C
:1008300050FC10260027A01C0125254A009603968F
:100840000297019704950590142310320221208805
:1008500009F074FC002816D11D4810220EA9103092
:1008600005F037FC201D05900C20194A02950396CF
:10087000049501970090142310320221208809F07A
:100880005DFC002805D014A008F000FF472013B03D
:10089000F0BDA28861881B4808F0F8FE0020F6E74A
:1008A000669A0C200008969EE2119EB1E0F273D980
:1008B000669A0C200008969EE2119EB1E1F273D96F
:1008C000669A0C200008969EE2119EB1E2F273D95E
:1008D00090070020180300204572726F722077681D
:1008E000696C6520616464696E6720536572696133
:1008F0006C20506F72742020736572766963652E68
:100900000A0000007C070510F8B516460D4607469C
:10091000002407F0C5FB002806D032462946384699
:1009200000F04AFC044604E020356879002802D033
:100930000E242046F8BD2879C10701D1012E09D027
:10094000810701D4022E03D04007F2D4042EF0D147
:100950000324EEE70224ECE770B50E460D49154678
:100960008A88521C904208D1002403E0285D07F0D9
:10097000CBFD641CB442F9DB70BD4988891C8842F8
:10098000FAD128780128F7D10348016804221143DD
:10099000016070BD18030020140300207EB50446DA
:1009A00016460D46684603F0ABFA68460378237096
:1009B000407828706846807830707EBD70B5002120
:1009C0000C4A03E0535C491C5918C9B2535C002B14
:1009D000F8D1CE1C02243525202E04D254545118AF
:1009E0004D708870CB7004490C704D708870CB705E
:1009F00070BD0000700300201C00002010B508F03E
:100A000077F91D4C4121206849014118097F0029CF
:100A10000DD1A0300079C00705D101F0CBFD02F067
:100A20007FFB07F031F900F037FC00F06BFE00F0BF
:100A300001F92068014640310A78C9798A4319D101
:100A40003E21095C002915D10C490A88120711D5ED
:100A50000922D2061269497A836AC90059181123FA
:100A6000DB01C018806A801A00020012814201DA9C
:100A70000AF048F910BD000068030020C000002003
:100A800010B5837F0122002492024168082B03D90C
:100A90004224914202D310E0914201D242240CE060
:100AA00001463422064805F014FB00F083F80028C4
:100AB00001DA482401E008F03FFD204610BD0000A7
:100AC000B00700203EB5174D15482968827F0846BB
:100AD000A0310A7300246030047644768476E122E3
:100AE000C2768022027702224277302008704C7052
:100AF00002AA01A96846FFF751FF68460078A222C2
:100B000001016846007A891C0002014368460079A9
:100B10000003014328681152A03004713EBD00005B
:100B2000B00700206803002070B508F0C7F804F093
:100B3000A1FA05F0A9FBFFF7D9FD03F0D1FC1A4C8F
:100B40001A4920681A4D4018811013202A68C001E4
:100B50001018C162616889080163A168890841634E
:100B600007F074F829681F208001228B0818828002
:100B7000628B0F23C280DB01A28BCB18DA87628CD9
:100B8000028022462032127882703D2252010020DB
:100B90008918087301F06EFB03F0C4FA0AF09CFC9C
:100BA00000F036FE70BD0000B00700200000FCEF32
:100BB0006803002070B50025ED430BF065FA0128AD
:100BC0002ED0002318490322888BFF24401E104397
:100BD0008A7F593462438218088B28246043121894
:100BE000488B3024604312180846203040782C246B
:100BF000604310180D4A181884184869A0420DD196
:100C00000B4884420AD90D690BF03EFAC1B228465E
:100C100000F034FC00F06EFD401B251A284670BD24
:100C2000FF23B533CEE70000B0070020891900008C
:100C3000B8090000F8B52C4F3C68206E5C34401CAD
:100C4000002814D0002529480023C07B00283ED06E
:100C50000926F6062648002D1CD000210A460B4620
:100C60004169521C994204D1002902D004E00125B7
:100C7000E9E7204B9A42F2D3216000696060306955
:100C8000A1680002090E000A09060143A16000F0F4
:100C900033F81DE03169A2680902090A150E08D06F
:100CA000018BC90712D04169216000696060E3725D
:100CB00010E0881A00027D2300121B03984205DD14
:100CC000100E00060843A06000F016F8F8BD63603F
:100CD000002DFBD003CC0DF03DFFFA200DF0C2FA41
:100CE00039688862F8BD000068030020D007002042
:100CF00000001048881300000449002008610448DF
:100D0000012100686030C171704700000000104888
:100D10006803002010B505F021FF10BD70B5274A0B
:100D20000021106803464030417601764920400199
:100D30001818417681760F202033987513230846C2
:100D4000DB0114680546E4186468303521541468E2
:100D5000E4186468615514683035E41864686155B6
:100D60001468E418656804469034401CC0B22955E4
:100D70002D28E6D31068C3185C6809231B02C3182A
:100D8000DC65254630359D6590345C65FF23483031
:100D9000037043708370C3701F23037112684D206A
:100DA0008154074801800921417105238371C17174
:100DB0000372428100F006F870BD00006803002055
:100DC000C000002010B5064801680648406A0028A7
:100DD00003D020220BF0F3F810BD0020087010BDE6
:100DE00068030020B0070020F8B5069C1F46154692
:100DF0000646002C13D0A06802220D3005F069F9D8
:100E0000E81E82B23B460721204605F0CBFAE5807A
:100E1000A068012E05D01D2101730020F8BD4720D8
:100E2000F8BD1B21F8E770B515460646FFF76CFDC7
:100E30000446082D0BD1052C09D1304607F030F9B6
:100E4000002804D000894004800F00D000242046F0
:100E500070BD2423184204D0C81F092803D82032AB
:100E6000D17100207047422070470000F1B5FFB0FB
:100E700001248BB0600205900027CC4807970168D9
:100E8000CB48C94D081803908A980AAA0005000D9E
:100E900005A906F013FE0690002872D104260AA8C0
:100EA00005994218203AD27F0B2A23D00026002031
:100EB00004900AA88119022201A8029105F009F9FB
:100EC0006846818809AB08AA039802F043FF01280D
:100ED00017D002287ED068468088854200D3054618
:100EE000844200D92046044602988078012872D0B6
:100EF00013363CE1491E761E36040591360CCFD1DF
:100F0000D5E708980090002F66D100990222283179
:100F1000029805F0DAF800281ED100982030017BF5
:100F200002988078814217D1012808D1009802994F
:100F300002220830C91C05F0C8F8002815D0029814
:100F40008078022808D10098029910220830C91C24
:100F500005F0BBF8002808D00098008DA84200D802
:100F60000546A04200D22046044602990AA8897884
:100F7000012907D013360599B6B28E4204D3012752
:100F800007E006E1761DF6E78119022201A805F0C7
:100F9000A0F80399009808318E462FE084466946F0
:100FA000026A8B8820300DE0918B994203D3012F88
:100FB0007ED199427CD9A94200D80D46A14200D3E6
:100FC0000C4612688242EFD10498002804D1604692
:100FD000006802E015E0BFE08AE070450ED0018DA8
:100FE000994203D3012F09D1994207D98D4200D3E9
:100FF0000D468C4200D80C46012F59D17045CDD1F9
:10100000BAE008980090002F72D1009902221C319A
:10101000029805F05AF800281ED100982030C178B7
:1010200002988078814217D1012808D1009802994E
:1010300002220830C91C05F048F800281AD002988E
:101040008078022808D10098029910220830C91C23
:1010500005F03BF800280DD00098808BA84200D8FE
:101060000546A04200D22046044602988078012816
:1010700026D003E002988078012805D0133607981F
:10108000B6B201281ED021E000984A490089884262
:1010900016D18A9800F07AFE0146009800F056FDBD
:1010A0000099098C4843009989694018022200E0A0
:1010B00038E00299491D05F00CF801200790D4E7AB
:1010C000761DDCE7B61C0020B6B207900598864274
:1010D00001D3012705E00AA88119022201A804F022
:1010E000F8FF039A0099083209980968944630E09D
:1010F0001AE086466A46938820300DE08A8B9A4231
:1011000003D3012F0ED19A420CD9AA4200D815461A
:10111000A24200D3144609688142EFD10498002806
:101120002AD102E00120049026E070460068604564
:101130000FD0028D016A9A4203D3012F09D19A423E
:1011400007D9954200D31546944200D81446012F82
:10115000E8D16045CDD10FE00298C078022805D1D2
:1011600002980079292801D1B61CB6B2761D0598DF
:10117000B6B2864200D301270598811B042902D309
:10118000864200D293E604980028FBD1A54203D9F9
:1011900006987FB00CB0F0BD224629468A9803F02D
:1011A000B5F80690F5E70000FFFF00006803002097
:1011B000640700000229000070B515460C4606467B
:1011C00006F056FF20346179012D09D00A0702D5B7
:1011D0004207920F0FD0CA0625D5020709D522E093
:1011E000CA0702D04207920F05D08A0705D5020729
:1011F00003D4082070BD052070BD490707D5C0077E
:1012000009D0E179304606F0A7FE5F2805D02079A5
:10121000C00704D005E00F2070BD0C2070BD022077
:1012200070BD002070BD890607D5C007F3D0E179F5
:10123000304606F091FE5F28EFD02079810701D477
:10124000022D07D0410701D4042D03D00007E8D4B4
:10125000082DE6D1032070BD10B50848064941614C
:1012600007490723CA691202120A44042243CA61C9
:1012700000218161036110BDFE7C000000E000E000
:1012800004ED00E003490A680B689B1A8342FBD314
:1012900070470000CC02002010B505F0A7F904F05B
:1012A00021FF0AF0F1FE012801D100F006F8C04646
:1012B000C04600F0BFF810BD70477047002070476F
:1012C000002101E000BF491C8142FBD370470000B0
:1012D000F3B58BB005461C2248A103A8FEF762FFB8
:1012E000684602F00DFE09240126E406002D67D0B1
:1012F0004420694688764848017A314301724C207F
:101300006946C87520200875B22048775B2008A977
:101310000870424A906A4249030C8B420AD108AFD6
:10132000FB788F273B4008AFFB70FB784007400EEF
:101330000343FB70506A020C8A420AD16B465A7C06
:10134000CF231A406B465A745A7C8007800E0243A2
:101350005A7432484038006B020C8A4209D108AAFC
:10136000D17889088900D170D1788007800F014336
:10137000D1706946C87DFB2108406946C875487828
:10138000897800010843122808D308A9C8780421E5
:10139000084308A9C870C878FFF710FB03A801210B
:1013A00080B209044018E060E068C003FCD46946DC
:1013B0004878897800010843122801D307F032FBEE
:1013C0001849088B0028FCD00E8317208881002044
:1013D00008610C98002806D021691020014022697C
:1013E00002408A42FBD0002D02D00F491520087020
:1013F0000F490E4808600DB0F0BD0000023F00022A
:101400003E30023C20023B4C023A400239B20234E8
:101410005B02350B0000000000002040C0070010F8
:1014200055AA0000000010480000C040CCBCECFCF5
:1014300014000020F8B5104E30682030C57D002D16
:1014400019D0002409273F0210E0E9070BD0C0198A
:10145000816E6020604308184030417F204603F0D1
:101460000DFF002807D06D08641CE4B23068AC2181
:10147000095CA142E9D8F8BD68030020F3B581B04A
:10148000984A012101A804F0ACFD974C0422206089
:10149000432101A804F0A5FD01272168FF02C91915
:1014A00008640422432101A804F09BFD2168042262
:1014B000C9194864FF21843101A804F092FD216814
:1014C0008A4DC9198864A97F0C2201A80B3104F048
:1014D00088FD13212268C9015118C860A97F202204
:1014E00001A804F07EFD0926216836028919C86723
:1014F000A97F102201A804F074FD13212268C901FC
:10150000511808602822052101A804F06AFD132162
:101510002268C901511888603022052101A804F011
:1015200060FD13212268C90151184860FA10012199
:1015300001A804F056FD13212268C9015118486121
:10154000A97F602201A804F04CFD2168202289199E
:101550008866A97F01A804F044FD21688919C8663E
:10156000AA8B012101A804F03CFD0F212268C901CA
:1015700051188863298B282201A804F032FD0F211D
:101580002268C90151180863698B302201A804F050
:1015900028FD0F212268C901511848630C2201213E
:1015A00001A804F01EFD21680C228919486601215A
:1015B00001A804F016FD216828228919496E886067
:1015C000284620300090417801A804F00AFD2168E7
:1015D00004228919496E896888600098417801A8B9
:1015E000491C04F0FEFC216810228919496E8968A3
:1015F0004860A97F01A804F0F4FC21680222C919FF
:101600004863A97F01A804F0ECFC21680222C919F3
:10161000C860A97F01A804F0E4FC21680222C9196E
:101620000861A97F01A804F0DCFC21680222C91925
:101630004861A97F01A804F0D4FC21680122C919DE
:101640008861A97F01A8491C04F0CBFC2168102205
:10165000C91908630B2101A804F0C3FC0722216803
:101660001202891808650422802101A804F0B9FC3F
:10167000216889190867029ADC204243012101A8E8
:10168000443204F0AEFC216889194867029AD820D8
:101690004243012101A82C3204F0A3FC2168F0226E
:1016A00089198867012101A804F09BFC104C7C2259
:1016B0002060A97F01A804F094FC21680822C86773
:1016C000032101A804F08DFC2168282280310860E4
:1016D000012101A804F085FC21688031486001984F
:1016E000FEBD0000B809000068030020B00700201C
:1016F0006C030020704710B5C001000C00F0ECF93D
:10170000002010BDFEB572B63F4D08232868014683
:101710004030C2791A43C27162B6002001276C467C
:10172000FF0282005218D219D26C52884300401C2A
:10173000C0B2E2520328F4D372B6C8190021866BF6
:10174000816362B6F00702D000200BF001F8B00709
:1017500002D501200AF0FCFF700702D502200AF032
:10176000F7FF300702D503200AF0F2FF002623E03E
:101770000D281AD2211D254A800012582046904774
:10178000002812D072B62868F7224030C179114083
:10179000C17162B630E03A2807D21C49231D80008F
:1017A000E8390A5819462046904702982968401897
:1017B000C019C06C2188018071006846415AB00090
:1017C00002902A688018C019C06C028892089200A2
:1017D0001418028808348A420ED0A27891070BD0E0
:1017E0009107890F012901D104460834A0788008A7
:1017F000C006E078CFD5BBE7761CF6B2032EDBD36C
:101800000AF0CEFEFEBD0000680300200C070510A4
:1018100070B50AF0DFFE114D01242868E4020019BA
:10182000006C40210AF0A2FC29680919C864486CC0
:1018300040210AF09BFC296809190865886CFF2182
:1018400081310AF093FC2B68082219194865044875
:101850000021181804F041FC70BD0000680300204E
:1018600038080000FEB50646294814460068294A93
:101870008518C888032806D02346002202210420A8
:10188000FEF70AFE42E08968022268460D3104F044
:1018900020FC326990052ED468460188172903D3AD
:1018A0005C20405B172801D2172002E0814200D261
:1018B00008467080012040020243022032610190FC
:1018C000134839210068490141183788097C768816
:1018D000012349070FD5D902083040182422C06CD3
:1018E000022108F0C3FA002805D08780C68001468F
:1018F000019808F0A7FAA06803260673A068294695
:1019000002225C310D3004F0E4FBE6800020FEBDD5
:101910006803002064070000F7B590B000206A4615
:101920000D9090826A4A6B4B12680446D218CB889D
:10193000022B08D0002218210420129BFEF7ACFDD8
:10194000002013B0F0BD8B6800205E7B0A900B90E6
:1019500088883032019209900027019808F04EFEE5
:10196000054620E028680890A9880998814219D185
:10197000A968022207A80D3104F0ABFB002F01D1AA
:101980006846878B6846808B87420BD12946019831
:1019900008F081FE002028600A98002811D00B98DA
:1019A00005600B95089D002DDCD1002FD4D1129835
:1019B00019218068017301211298012EC18002D083
:1019C00081E00A95EDE702A90AA8FEF792FD00283A
:1019D00079D069460A891821129BFEF75DFD002621
:1019E00071E081680546022202A80D3104F071FB06
:1019F000012E66D16846008901F038FB0146684631
:101A00000EAA008902F0C4F90E9C1099204600F03D
:101A10009DF80D9055E02F68012E3FD1002F06D084
:101A2000B968022205A80D3104F053FB02E0002042
:101A300069468882A968022204A80F3104F049FB94
:101A4000E8880D99401F80B20090208CA26948431D
:101A500069461018098A009A43180921284604F09B
:101A6000B1FB2220005D012804D16846018A00985C
:101A70000818E08368460189808A81420ED0208C54
:101A80000D99A26948431018002101900091109807
:101A9000E38B0188A28B022008F092FB0A99086868
:101AA0000A90002008600A99002900D10B900121BA
:101AB000284604F023FC69460889898A884202D1B5
:101AC0003D46002DA7D10A9800288AD139E70000A9
:101AD000680300206407000000B508490968084A47
:101AE000914209D14006010C06483F2202818161E2
:101AF0001121018000F022F800BD00001400002038
:101B0000CCBCECFC0000104000B5094A1268094B3F
:101B10009A420BD1084A3F231381800890610648FE
:101B2000403001603320108000F008F800BD000054
:101B300014000020CCBCECFC000010400248018ADC
:101B4000C907FCD0704700000000104030B50246C5
:101B500023239B5C0020012B1AD112890D4B9A4242
:101B600016D10D4A092312681B02D318A032DB6E6E
:101B7000127B0AE045010C885D5B24052D05240DD0
:101B80002D0DAC4204D0401CC0B28242F2D80020DD
:101B900030BD00000229000068030020F7B5784836
:101BA0000F460068774988B04418F888072804D29F
:101BB0000022062104200A9B2AE0B9680222684616
:101BC0000D3104F086FAB968022201A80F3104F041
:101BD00080FAB968022204A8113104F07AFAF88870
:101BE000C01F80B2039068460288808882420CD869
:101BF000002A0AD00898002142880A9804F002FDC1
:101C0000002808D045200BB0F0BD062101200A9B1A
:101C1000FEF742FCABE00A980721806808340173A4
:101C20000121684601810594008801F01FFA050032
:101C30007CD086E06846008A0522D202904202D01B
:101C4000521C904226D168460088814278D32946AA
:101C50000B2208313846039B04F04AFB69466A8D23
:101C6000098A8A426CD10399022901D0102967D1CF
:101C7000002865D12A462846296A28322030814228
:101C800002D06B6A1C3300E0134602A90A98FEF7E3
:101C900016FC55E02E462C6A2036B4424ED14FE059
:101CA0006946A08B0988884247D36946898888425B
:101CB00057D82320005D01283FD120460899FFF71F
:101CC00045FF218CA269414351180B223846039BE2
:101CD00004F00EFB069008980122008821460005BA
:101CE000000DFEF711FE01466A462089128A9042D5
:101CF00023D1002921D1E28B03998A421DD1069973
:101D000000291AD108996A4649881289891A042932
:101D100027D322461C491C32884208D12068B04291
:101D200005D00089884202D02468F7E719E02346ED
:101D30001C3302A90A98FEF7C2FB2468B442AFD153
:101D40002D68059885420CD06846298D808881428F
:101D500007D808986A4640881289801A042800D358
:101D600068E768460089012803D90A99C8800020DD
:101D700049E76846028806210A200A9B48E70000D6
:101D800068030020640700000328000010B50D4917
:101D900000050B68092109025918CA6E0021000DBF
:101DA000A0331B7B0AE04C01145B2405240D844204
:101DB00002D14801801810BD491CC9B28B42F2D82B
:101DC000002010BD68030020FFB589B0002405463F
:101DD0000794D0881646052804D00022042108461E
:101DE0000C9B20E0B168022208A80D3104F071F9C3
:101DF000B168022268460F3104F06BF96846028C24
:101E0000008882420CD8002A0AD00A980021428811
:101E10000C9804F0F7FB002808D045200DB0F0BD69
:101E2000042101200C9BFEF737FBB9E06846008CCB
:101E300001F01CF9060076D0083504950498864216
:101E400072D06946308D098C884230D36946098842
:101E500088422CD8002C0AD1012107910C98052129
:101E60008068022401730C980799806841730A986E
:101E70004088001B042857D30798012854D1201DFF
:101E800081B23346283302220C9804F08BFAA01D4D
:101E900081B233462A330222A41C0C9804F082FA41
:101EA0006946A41C308D0988A4B2884274D0374694
:101EB000356A2037BD42C1D060E06946A88B098CE5
:101EC00088425AD369460988884265D8002C36D0A2
:101ED0002320415D0798814260D10A984088001B09
:101EE000042802D30799012904D0122856D3079851
:101EF000022853D1201D81B22B461C3302220C989C
:101F000004F050FAA41C0798A4B201280DD0201D9B
:101F100081B22B46083310220C9804F043FA204675
:101F2000103084B229E03DE036E0201D81B22B461E
:101F3000083302220C9804F035FAA01CF1E72320A4
:101F4000415D07910C9805218068022201730C986D
:101F50000799806841730C98294680681C310E30BF
:101F600004F0B7F8079901290CD02B46083310224A
:101F700008210C9804F016FA14242D68BD429CD157
:101F800036685BE70C9829468068022208311030D9
:101F900004F09FF80624F0E7002C03D00C98C480CE
:101FA00000203BE76846028C04210A200C9B3AE79C
:101FB000064909220968120289188008C96E400181
:101FC00008180188002900D100207047680300200C
:101FD00070B50C460B4E81000B4832680D1801237A
:101FE0002032D37721462846FFF78EFD286800214E
:101FF000844201D1084600E0FB2032682032D177CC
:1020000070BD0000680300200000041038B5184AB5
:1020100014682246BA32AE34A378DD0701D0012914
:102020000AD05B070CD501290AD0217949070BD5C5
:10203000E17A002905D007E0E07880210843E070CC
:1020400038BD0121E172508020794106090FF7D097
:102050007821084069460870002048706A460221CD
:10206000422008F003F8207987210840207138BD0C
:102070006803002070470000FFB50C4678A103C933
:1020800095B001910090002108A801730321C902B5
:1020900068464186012108A8734E017435681746C9
:1020A000AE3502F09FF8002808D17049306840181A
:1020B00001F0E2FEA878002802D0462019B0F0BD59
:1020C0000BA8159900F01DFB0028F7D1072010A9D7
:1020D0000871012C05D0022C0AD0002C0ED0422011
:1020E000ECE708A8017B1020014308A8017305E074
:1020F00011A90BA800F014FB0028DFD110A8027969
:1021000001230CA9284600F0EBFE00287ED1022214
:102110002946189803F0DDFF29886846818115213A
:10212000490201820784012686734E2108A8817026
:102130000024C470067107214171867103A902A8A9
:1021400000F084FC002861D1022202A91E9803F04D
:10215000C0FF082F02D26846478502E00820694682
:10216000488569460C850B4628880AAA098901F02A
:10217000F5FB00286DD13E4968460182022707849D
:1021800008A8847103A902A800F060FC002860D1AF
:10219000022202A91F9803F09CFF6846047069465A
:1021A00044704F850B4628880AAA098901F0D6FB9E
:1021B00000284ED108A8007BC00723D02C496846D0
:1021C000C91C01820821018408A88770047103A931
:1021D00002A800F03BFC00283BD1FF216846C171FA
:1021E0008171C170817041700170447104716946E0
:1021F000082048850B4628880AAA098901F0AEFB09
:10220000002826D108A8007B800600E021E022D526
:102210002988684681811649A53101820684867322
:1022200008A88770C470047107214171847103A9E3
:1022300002A800F00BFC00280BD169460E700C853B
:102240004E850B4628880AAA098901F087FB0028D9
:1022500001D0472032E708A8007BA87000202DE7B6
:10226000626C75656E726721680300203307000099
:10227000012A0000034800210068AE30C17081705F
:10228000704700006803002038B502461748012453
:102290000068AE30022A1FD0052A03D0072A07D0D3
:1022A0000B2A20D1084609794088FFF7AFFE1AE0D3
:1022B00000790024020600D50124820703D1C2065A
:1022C00001D480060FD5084600216A461170694680
:1022D00007F0A6F9044606E08178490703D501799D
:1022E000FB2211400171204638BD00006803002028
:1022F00010B509480468AE34E07880070BD500209B
:1023000002F0D2FC022007F057FEE07801210843DA
:10231000FD210840E07010BD680300200FB410B527
:10232000079C01282DD1684680891749884210D121
:1023300003A80FC800F018FA00281DD105F0DAFA3A
:10234000FA281ED001281CD92078F32108402070DB
:1023500017E00D49491C884208D0C91E884205D0A3
:10236000491C884202D0C91C88420AD103AC0FCC58
:1023700000F0FAF9002800D0632010BC08BC04B0BB
:1023800018470020F9E70000022A0000FFB50746C1
:1023900073480D4604688FB0AE34A1781E46C80657
:1023A00002D5E078C0067DD4880607D5E07880069F
:1023B000800F03D0022F01D0002E73D08806800F2B
:1023C00006D0022F08D0032F06D0002E6AD003E0DB
:1023D000012F01D0002FF8D1880603D4002D01D0A1
:1023E000012D5FD1002E06D130200140384602F089
:1023F0001BFB002856D1119900200870A17889068E
:102400008A0F7DD00CA908A802F0C8FD07900DA97D
:102410000AA802F00FFE06900798002802D006983E
:10242000002801D1012E58D1022F04A807D001F0B5
:10243000D7FC002E3CD00798002803D012E006F00D
:1024400013F8F6E7464F47483B68062208A91818D4
:1024500003F03BFE0028386808D04030417E490830
:10246000490041760698002805D014E04030417EAE
:1024700001221143F5E73A4F3A483B6806220AA980
:10248000181803F022FE002838680CD04030417E36
:10249000FD22114041760798002809D006980028AF
:1024A00006D01AE043E04030417E02221143F1E7BA
:1024B0002B48062203682B4804A9181803F009FECC
:1024C000052069460873002E02D1084606F0EAFC92
:1024D00025480290684606F099FCA078800611D540
:1024E0001198032101702079C10603D5002D01D078
:1024F000022D1CD1800605D5012D03D0032D00E04F
:1025000018E014D1A078C00627D5119901200870D1
:102510002079C10601D5002D09D1810601D5012DF3
:1025200005D1000619D5002D17D0012D15D0422058
:1025300013B0F0BD012F01D1002E03D0890F31431C
:1025400009D00AE00648062203680648611D1818EB
:1025500003F0BFFD0120119908700020E8E700009A
:102560006803002033070000A0BB0D003EB509F052
:1025700019FE044609F0A2FE082C01D1082813D048
:102580000A480B49006806224118684603F0A1FD7D
:1025900068464079400601D5022000E0032001236F
:1025A00002AA0021FFF7F2FE3EBD000068030020F2
:1025B000330700001FB50E480468AE34E07801060A
:1025C00012D5A178C9070CD0800708D50420694628
:1025D0000873684606F066FC022007F0EDFC002058
:1025E000E0704006400EE07000F099F81FBD00005A
:1025F00068030020F0B58DB00C4616A9E0C9002193
:10260000089109910A910B911599049105A9E0C1CE
:1026100012A962C9009301911346014603960295DF
:102620002246012007F0FAF80DB0F0BD10B502F017
:102630001DFB10BDF3B591B0044603206946087038
:10264000002501A802F0CAFC224609A8129903F04D
:1026500040FD214634E0002001AB5B199C4614E0AC
:10266000129B1B5C934239D8934201D1002B35D188
:10267000129ED21A36186746521E76787F78D2B2EA
:10268000BE4213D0401C1818C0B2A042E8D301AF1C
:102690007A5D4E1C90191F282DD809AB5818614639
:1026A000521C03F016FD785D8019C1B201A86B467B
:1026B000405D1A786D1C121A521E40191A70C5B26C
:1026C0006846007822460028C5D110E0129B1B5CAA
:1026D000934203D8934204D1002B02D0422013B07E
:1026E000F0BDD21A521E401C1818D2B2C0B2A0427D
:1026F000ECD31F2901D94120F1E709A802F012FE0D
:10270000EDE70A07920F01D0422070478A07FBD0FD
:1027100002788907890F0A430270002070477047CA
:102720004220704710B50446022000F051F80D48D1
:1027300000210268092000021018A032C36E107B2D
:1027400005E04A019A5A002A04D0491CC9B28842BD
:10275000F7D810BD48011C52C018026904210A4371
:10276000026110BD680300201FB582B0002401F093
:102770007BFB694601F01CFB009A6846116A0089E0
:10278000203209E023235B5C012B04D10B898342B7
:1027900001D1641CE4B209689142F3D1204606B02D
:1027A00010BD000010B504460146042001F0CEFF24
:1027B000002808D0044805490068401821463C30EC
:1027C00007F04CFF432010BD6803002064070000A1
:1027D00004490A683D21490151180A7B02430A73E2
:1027E000704700006803002000B51138C0B2FFF741
:1027F000DFFB002804D00122016952051143016169
:1028000000BD7047F0B5027901239B070168002ADB
:1028100002D0062A03D006E05C688C4302E05C68C4
:1028200000220C435C6000210F240568CD40ED07B9
:10283000ED0F37D0082909D2DE6A8D002746AF4058
:10284000BE431746AF403E43DE622BE00D46083DD7
:10285000082D0AD28D002646203D1F6BAE40B7439F
:102860001646AE4037431F631CE00D46103D082D51
:102870000AD28D002646403D5F6BAE40B7431646F8
:10288000AE4037435F630DE017290BD9114E8D0021
:102890002746603D368BAF40BE431746AF400D4DD7
:1028A0003E432E83491CC9B21A29BED3417901295E
:1028B000D968026809D09143D96081790129996862
:1028C000006804D081439960F0BD1143F4E70143EF
:1028D000F9E700002000004003480068AE3080782F
:1028E0008006800F7047000068030020F3B597B0A2
:1028F0000D8848880590081D1DC80DAE1DC68C8A20
:10290000CE8A087E1390C869203101900878009023
:102910004878049088780390C87802900F7900F086
:102920004BFD002817D10120400284425FD8B442F9
:102930005DD8002F01D1B44259D114A9284601F025
:1029400037FA002806D115AA1499059801F020FA43
:10295000002802D0602019B0F0BD149D11A92846AE
:10296000183003F04FF810A88088002810D02846AF
:1029700012A9203003F046F810A8838800892A8D18
:102980001818696A10188A8B904203D16120E2E717
:102990004820E0E715982C4B02899A4227D1232240
:1029A000125C012A23D10068006816901398012850
:1029B0001FD16846808E29221202801A030006F079
:1029C00082FE0604180404070A18022C0FD110E036
:1029D000072C0CD10DE0042C09D3E00707D1012FFF
:1029E00007D1A64203D3042E01D3F00701D0422021
:1029F000B1E702980B90039B049A0A9309920098FE
:102A0000019A0C9708900696059407920DA81DC888
:102A1000019002A81CC013980B4600902A461699F4
:102A2000179800F0B1F9002895D168460649808EC4
:102A3000FF31884205D01798018800200A4601F02E
:102A400065FC002087E7000003280000F3B5A5B06F
:102A500008881A9088780C4611901022091D13A836
:102A6000FDF7A0FBA08A1090A17D68460172E07D71
:102A70000F90207E2090677EA07E1F90002006464B
:102A80000146129020A801810F20BB4C2390BB4926
:102A900020684018199000F08FFC00280BD101210C
:102AA0001098490288425FD821A91A9801F080F94C
:102AB000002802D0602027B0F0BD2198179001F0C7
:102AC000D3F91A9988420CD102A801901698009067
:102AD00013AD0ECD1198FFF721FC002801D0632023
:102AE000E9E76846017A8806800F05D00120129038
:102AF0002068A030007B4600C80703D01298401C15
:102B0000B61C1290080603D51298401CB61C1290F1
:102B100017980DA918301D9002F074FF6846129C9A
:102B2000808EA41CA04237D317980EA920300190A4
:102B300002F068FF6846018F00290DD01798179A98
:102B40006B46406A9B8E128D5918808B5118081A5B
:102B5000A04201D26120AEE71798846911982568D8
:102B6000012803D0022803D04220A4E7052000E07A
:102B70001320E0832A4639460F98FEF76AF9422867
:102B800099D0199FE28B4037788B398B411A109876
:102B900010188019814201DA48208CE70EA90198AB
:102BA00002F030FF6846008F0028179802D0406A74
:102BB000808B00E0008D2599401C0880259801211C
:102BC0000088A083259802220088401CA8836C48B6
:102BD0002081204620301790C170002181708171C2
:102BE0001998398B406D40186946A061097A0170C7
:102BF000A06929461C31401C03F06BFA119801288A
:102C0000A0697DD0102213A9C01C03F062FA2846E7
:102C1000102213A9083003F05CFA388B1330388384
:102C20002E4620361198F0701098E8831F98B070E7
:102C300010982084109828841998398B406D40187A
:102C4000A8610021109A03F048FA398B10980818EF
:102C50003883179901200871179900204871307145
:102C60006846007A810701D50121317101070227E9
:102C7000002902DA317939433171410703D53179BD
:102C8000042211433171400603D5307908210843ED
:102C900030710F9870712098B07121461D9802F024
:102CA000DAFE2146019802F0B7FE29461D9802F08F
:102CB000D2FE2946019802F0AFFE1298002841D0BA
:102CC00068461A998181A18BC181078447840124B8
:102CD00008A8047122A80A9008A884732399417354
:102CE0000F993820014008A801730721C1730025FE
:102CF00005746846007AC00708D02248694600E09B
:102D00002BE0088203A924A8FFF7F0FD6846007AAB
:102D10008006800F07D01B486946401E088203A921
:102D200024A8FFF7E3FD6846007A00060AD52921AA
:102D300009026846018208A84473057303A924A800
:102D4000FFF7D4FD259801881298401C081882B21C
:102D5000002001F0DBFA0020ADE6022213A9C01C1E
:102D600003F0B7F92846022213A9083003F0B1F99D
:102D7000388B401D53E70000680300206407000003
:102D80000328000003290000FFB55248524A00689A
:102D900087B08218069210AA109B0126169F92886F
:102DA000012B04D14D4B9A4201D1A030067B069DE8
:102DB00034464035688B2B8B7C43C31A09982030EE
:102DC0000390A34222DA48200BB0F0BD2320405CE0
:102DD000012819D108896C46208098420CD03F4CBC
:102DE000641EA04208D0641CA04205D0641CA0420E
:102DF00002D0A41CA04207D1384CFF3CA04201D015
:102E0000904201D16220DFE7096801E029231B021B
:102E100003988142DAD109981B998469189822464F
:102E2000FEF717F84228CFD01C98012804D1159836
:102E3000874201D24220C7E71598E0832046203020
:102E40001C990590817027840A98808B401CA08370
:102E50001098012814D02046102211A9083003F040
:102E600038F905991098C8700698298B406D40185C
:102E7000A061298B384670430818288300250FE08D
:102E800011A80FC808340FC4183CEAE72846A16906
:102E900078430818159A179903F01BF96D1CEDB2C9
:102EA000B542F3D305991898487105991998087196
:102EB00005991A98887109982146183002F0CBFDBF
:102EC0002146039802F0A8FD0798A18B01800020FD
:102ED0007AE7000068030020640700000229000070
:102EE000FFB58FB014460E78102205A8891CFDF797
:102EF00059F94F484F490068451800F05DFA00281D
:102F00001ED1002C57D0012E09D16846808A4A492B
:102F1000884204D12846A968083081424BD128460E
:102F2000103029690390814209D00AA9284602F08D
:102F300069FD6846018D601E0D90814202D24820D5
:102F400013B0F0BD284608300CA9049002F05AFDD9
:102F50006846008E002814D0EF680AA93846183059
:102F600002F050FD384620300CA902F04BFD6846B7
:102F7000398D008D09186846008E401C081887B2EC
:102F800000E0012701200004C01BA04201D2612003
:102F9000D6E72C69286801901298012802D00228EF
:102FA00003D008E00520C00200E024486085012E1F
:102FB00003D0022E05D04220C2E72046083002226C
:102FC00002E020460830102205A903F082F82046CE
:102FD00031462030064601730F9821460780278529
:102FE000039802F038FD2146049802F015FD2746AB
:102FF0001837E7616662A76126620D9884B20BE01C
:103000002846019902F027FD3846019902F004FD97
:103010002868641EA4B20190002CF1D10F98018899
:103020000D98081882B2002001F070F9002087E79F
:103030006803002064070000011800000128000058
:10304000024608480849006841188868083103E0CA
:10305000038D934202D200688842F9D1884200D1A0
:10306000002070476803002064070000034610B585
:103070000E480F49006841188868083103E0148D34
:103080009C4203D8104602688A42F8D18A420CD189
:10309000018D994209D20146026A20318A4203D049
:1030A000416A898B994200D2002010BD680300203C
:1030B00064070000024610B50B481205016809209C
:1030C00000020818C36E0020120DA031097B07E032
:1030D00044011C5B2405240D944203D0401CC0B263
:1030E0008142F5D810BD000068030020F7B5054601
:1030F0001746019807F082FA2E050446360D0CE0BB
:10310000A0882568B04207D12146019807F0C3FA8C
:103110003946204603F0F2F82C46002CF0D1FEBDD3
:10312000F0B58BB000206349029063480A68141818
:1031300072B610464030C57902231D43C57162B690
:1031400025464035287AC0077DD009200002101896
:103150000026C76E49E071017A5A002A43D0C91986
:10316000069109694A021ED48A0226D502210491D9
:103170000699012309880905090D0391392149019F
:103180004118097C89070ED5D9020830401823223E
:10319000C06C022106F06AFE010004D0039A8A8006
:1031A000049806F04FFE069800880090069800F0FC
:1031B00085F8009804F04EFF15E0480713D50698EF
:1031C00000880005000D04F0D7FE002805D1069800
:1031D00000880005000DFDF749FE069904200969E5
:1031E000814306980161761CF6B23248AC21006832
:1031F000095CB142AFD803F0FBFB20462430064601
:1032000007F042FA012802D0012003F0F5FA204627
:10321000183007F039FA012802D0002003F0ECFA48
:103220003C34204607F030FA01280FD002A920468E
:1032300007F053FA0420029901F088FA0028F0D030
:103240002046029900E032E007F0F5F9287A0006FE
:103250002DD5304607F018FA012828D1002002F0B9
:10326000CDFFA98B23314909491CC9B2FCF784FF62
:1032700000281CD00F4D044628680123D9020830CD
:10328000401842263822C06C314606F0EFFD01009E
:103290000DD000228A80CC80304606F0D3FD3D213F
:1032A0002A68490151180A7B802082430A730BB0B7
:1032B000F0BD00006803002064070000F0B504467C
:1032C0003B483C49006885B04518218A890419D5D6
:1032D00002210491392149014118897C412627881E
:1032E0000123C9070ED0D902083040183122C06C22
:1032F000022106F0BBFD010004D08F808E7104987E
:1033000006F0A0FD2946208801221831FFF7EEFEC5
:103310002946208801223031FFF7E8FE294620881F
:1033200001222431FFF7E2FE2946208800223C31A9
:10333000FFF7DCFE20880005000DFFF7BBFE8500CF
:10334000294611316846017305F0ACFD294612315A
:103350006846017305F0A6FD2946133168460173DE
:1033600005F0A0FD68461435057305F09BFD208827
:1033700000F03CFA208801050D48090D0268132071
:10338000C0011018028A914201D100210182E06936
:10339000002802D0012102F0B1FF202200212046A6
:1033A000A56802F09AFE1720A560608005B0F0BD08
:1033B000680300206407000010B50B480B49006843
:1033C00044184034207AC00709D0002002F016FFCC
:1033D000217A890701D5002803D0002010BD47209D
:1033E00010BD642010BD00006803002064070000C9
:1033F000F0B55FA099B000685E4915905E4A086814
:103400008418092212028218D26E25464035149281
:103410002A7AD20702D0622019B0F0BDAA8B01230C
:103420005B029A4201D9AB8303E0172A01D217222B
:10343000AA83149AA0301392067B0DE0761EF6B292
:10344000139871010F18B8680F9038462022002198
:1034500002F043FE0F98B860002EEFD120460830EE
:10346000E0606460A06024600830139060612061B7
:10347000FF220021083007F0D6F82046FF22002165
:10348000243007F0D0F82046AA7F0021303007F022
:10349000CAF82046FF2200213C3007F0C4F8002281
:1034A0002A7210461721334B05E0149E4701BE19BE
:1034B000401C7180C0B21E68A036367B8642F4D8AC
:1034C000002028832F8C688C0026149008E0282088
:1034D000E16C70430918204602F09EFA761CB6B2E1
:1034E000BE42F4D3002608E03020216D7043091855
:1034F000139802F091FA761CB6B214988642F3D370
:103500000120FFF765F90124684604701B494180DA
:103510002346042269460CA8FFF7E2FC002822D1CA
:103520006846018E818216490183042606858475CA
:10353000202108A881720024C472047307214173FA
:10354000847305A90DA8FFF781FA00280BD16846FE
:1035500004874687818E15AB0EAA008E00F0FEF917
:10356000002800D158E700202872472054E70000C7
:103570000000FFFF6803002064070000011800003E
:10358000052A0000F8B5044683480E4600688349C2
:1035900047184820C05DC0076FD0B088FEF7F6FB23
:1035A0000546012C02D0002C68D0F3E0002D04D099
:1035B0002869410703D54520F8BD0121C7E0B2685D
:1035C000F188147B0029F0D062060AD56888884209
:1035D000F3D3D22C01D0522CEFD1384631461830DB
:1035E00048E0A106890E1E2949D81E2C20D10107CA
:1035F0001ED50821884328612988012005F048FA52
:103600000121304602F07AFE634801230068D902A6
:103610000830401842242D883922C06C214606F01B
:1036200025FC010003D08D80204606F00BFCB1E0A4
:10363000E1070BD01D2C1AD01B2C18D0410533D418
:10364000012189020843EE612861A3E0C00606D586
:103650002B4602220321422006F048FFADE72988CD
:10366000002005F003FA296910200143296138463A
:103670003146243006F0F2FF8CE015E016E0298890
:103680002022002002F0DEFD05000DD00121304691
:1036900002F034FE2B46002221460620FCF7FCFEF9
:1036A0002846FFF77FF875E04120F8BDB068047B3D
:1036B0001D2C3CD01B2C43D00021304602F01EFEB6
:1036C000002D67D0032C46D0052C44D0072C42D0C7
:1036D000092C40D00B2C3ED00D2C3CD00F2C3AD0D6
:1036E000112C38D0132C36D0172C34D0192C32D0C2
:1036F000012C30D0022C35D0042C33D0062C31D004
:10370000082C2FD00A2C2DD00C2C2BD00E2C29D0ED
:10371000102C27D0122C25D0162C23D0182C21D0D9
:10372000522C1FD0D22C1DD01E2C2FD032E0002DB9
:1037300003D02988012005F099F93146022001E0E3
:103740003146012005F006F8002823D0002130463C
:1037500002F0D4FD1EE029691020814329612988E7
:10376000002015E02869402188432861010511D512
:10377000FF210131084328612988022005F076F9EC
:1037800001202969C0028143296103E029880320BF
:1037900005F07EF90020F8BD6803002064070000F2
:1037A00010B5104A104B1268D2184032127AD20764
:1037B00006D002280AD0052804D00B2810D101E039
:1037C000412010BD4888FEF7ADFF09E04888FEF7AC
:1037D000DDFA002804D0012201699205114301613C
:1037E000002010BD6803002064070000F1B5FFB0A1
:1037F00085B047200190002069460880534854490D
:10380000006847188498FEF7C1FA0290002874D027
:10381000B96808374FE0684600880D4604AC2018A8
:103820006B46022228310CF034FD68460088294698
:1038300020186B4601222C310CF02BFD2E46203631
:10384000307B69460128098804A809D040186B46D6
:103850001022294608310CF01CFD01902C6A27E04B
:1038600040186B460222F4E76946098804A840180C
:1038700021466B4602221C310CF00BFD694609887B
:1038800004A8401821466B46012223310CF001FDAB
:103890002320005D69460128098804A830D040181B
:1038A00021466B46102208310CF0F3FC019024688D
:1038B000B442D9D12968B942ADD1019800281CD1B0
:1038C0006846008881070AD0224A011D11406A46D5
:1038D00011800A1A04A908180B2102F0FEFB0298B5
:1038E000008804F049FB002807D184986946000548
:1038F000000D04AA098804F019F87FB006B0F0BDE5
:10390000401821466B46022208310CF0C2FC01909F
:10391000208911498842CAD120460299FEF716F93A
:103920004000A16903906A460918128804A880180B
:103930006B4602220CF0ADFC0190A16903980222B3
:103940000818002102F0C9FBB1E70000680300205D
:1039500064070000FCFF000002290000F0B50746E4
:1039600017480E4600683D2149014018007B85B08C
:103970001D461446C00706D003A9384600F018FAC1
:1039800000280AD102E0472005B0F0BD04AA304665
:10399000039900F0FDF9002801D06020F4E70499B4
:1039A000228860880968002A00D0088C32466E465A
:1039B00031C603233946002000F004F8E4E7000094
:1039C00068030020FFB5002099B0239A0B90129055
:1039D00005461490064615901C46DB480B460068C9
:1039E000DA49229F411803910021089109915188D9
:1039F000069111880A913D2149014018007BC007BA
:103A000006D00FA9184600F0D3F900280AD102E029
:103A100047201DB0F0BD10AA0F991B9800F0B8F90F
:103A2000002801D06020F4E71998002803D060072F
:103A300001D5012000E000201390A007800F1C900A
:103A4000109817902030C078012840D11798C04BAB
:103A500001899942F9D11798069904680A98228C2D
:103A60004118914233D820462030169080780128A2
:103A700016D0E08B04901798806900788006800F3C
:103A80007ED0039840301890007A800778D51C9833
:103A90000028F5D0AE4F0F99FF372031206814E091
:103AA000BA4214D3B942DDD80497E4E70389A84A9F
:103AB000934203D12322125C012A08D0BB4203D1D6
:103AC0002322125C012A03D000688842EED134E13F
:103AD00005900028FBD09C48092102680902511872
:103AE000C96E0027009162E0780100990390085A9E
:103AF00001055AD01999002901D0884255D105995C
:103B00007A008B69511C595C9A5C0902891889B248
:103B10000D91890749D002220599FCF7F5FE00288E
:103B200004D01998002840D0652072E7002008A929
:103B3000C8551C98C00718D0179880690078C0062F
:103B400013D50D98C00710D00120C8550543009A21
:103B5000039880184088159A904206D91590009ACB
:103B60000398105A0005000D14901C9880071CD56E
:103B7000179880690078800617D50D98800700E0B7
:103B800083E012D50220CA5D05430243CA5500995D
:103B90000398401840881599884206D915900099D5
:103BA0000398085A0005000D14907F1CFFB2664868
:103BB0000068A030037BBB4296D8002D65D01898D2
:103BC000007A00065FD460480168092000020818E6
:103BD000C16E00201BE042018E5A360515D0AE079B
:103BE0000BD556183669B7070DD408AF3F5CBF0731
:103BF00003D5360701D546200BE7EE0705D052184E
:103C0000127CD20701D0432003E7401CC0B283429C
:103C1000E1D81598C01E86B20498864200D906469F
:103C2000A8070FD520220020149902F00BFB129058
:103C300000287DD0F01C82B20021129802F0DBFC3B
:103C4000002811D1E80720D020220020149902F08A
:103C5000F9FA0B90002807D0F01C82B200210B98D3
:103C600002F0C9FC002810D08020FEF7B1FD1298A8
:103C7000002802D0002102F041FB0B98002802D05E
:103C8000002102F03BFB6420C3E6A1690A98069A72
:103C90000818249902F01DFA16988078012801D19D
:103CA0000498E083002D46D0274B092019680002B4
:103CB0000818C16E002008AA0CE04301CF5A3F0546
:103CC00006D05F18BC463B69175C3B4367463B61C7
:103CD000401CC0B21C4B1B68A0331B7B8342ECD83A
:103CE000A8070DD512980090F01C82B221461C3115
:103CF0000220A369FDF778F80220129904F02AFD4A
:103D0000E80718D00B980090F61C2146B2B21C317F
:103D10000120A369FDF768F81398002805D00B98D7
:103D20008021C07C08430B99C87401200B9900E0E6
:103D300005E004F00FFD00206BE6422069E68020DC
:103D4000FEF746FD9FE700006803002064070000BF
:103D500003280000F0B58468083015E0258D8D42F9
:103D600003D1146018600120F0BD26461C60203687
:103D7000256A06E0AF8B8F4202D102201560F0BDAC
:103D80002D68B542F6D124688442E7D10020F0BD09
:103D900010B50B6A203106E09C8B844202D10020D2
:103DA000136010BD1B688B42F6D1412010BD00008E
:103DB00010B5094A094B1268D2189368083206E018
:103DC0001C8D844202D100200B6010BD1B68934201
:103DD000F6D1412010BD00006803002064070000F8
:103DE000F8B5204E04463568AE3500F0D1F92070A4
:103DF000000A607000F0CCF9A070000AE07000F0DA
:103E0000C7F9C2B28004830E227100216371084693
:103E1000275C401C7918C0B289B20628F8D3002963
:103E2000E3D02078FF280CD16078FF2809D1A07852
:103E3000FF2806D1E078FF2803D1FF2A01D1FF2B0C
:103E4000D3D00622691D204602F03FF90028CCD0CD
:103E5000316806222046783102F037F90028C4D0B4
:103E6000F8BD00006803002002480068AE300088FA
:103E7000704700006803002010B503490622096856
:103E8000B33102F026F910BD68030020F7B51646DD
:103E900000241CE00098114900194018810801987D
:103EA0008900001942780578120215438278C0789B
:103EB0001204000602430948154340420F182946E0
:103EC0003846FDF721FE3868854204D1241DB442EE
:103ED000E0D30020FEBDFB20FEBD00000000FCEF93
:103EE000F0B50E460746002407E03D1900F050F9F2
:103EF0002870000A6870A41CE4B2B442F5D3F0BD87
:103F000030B5124A114C283A114BD1690906090FF4
:103F10004170D2691207120F827022680D4D012480
:103F20004260AA4208D11A680B4B9A4201D104227E
:103F300000E00222027000E00470002900D1447009
:103F40000649898A491C8900816030BD280090405B
:103F50001C00001041A0000244A000F2000010402C
:103F600010B5012818D8072916D80C4A126813462C
:103F70002033187759778007C906000E090E0143D0
:103F80000020074BA03204E08401E418A172401C19
:103F9000C0B2147B8442F7D8002010BD6803002013
:103FA00000010020074A914202DC5242914200DAAD
:103FB0001146FF22993251430A1251180A1451181E
:103FC00008187047FFFF4F0010B50920C0060069B0
:103FD0000002000A04F092FF10BD7047F0B54F4F89
:103FE0000446386885B078300D461646002C10D04F
:103FF000062C14D0082C0FD0182C0DD0282C0ED045
:104000002A2C0CD02C2C0DD02E2C0ED0D02C47D0FE
:1040100048E0062D0FD045E0102D0CD042E0022DD7
:1040200009D03FE0012D06D03CE0062D3AD1717950
:10403000890903296FD100192A46314602F049F84F
:104040002C2C26D13078002823D008F01DF8012828
:1040500022D01B201F304009401C41004118012084
:1040600002F0BAF808F010F8012817D01B201F3012
:104070004009410041182A484078401AC01EC1B288
:10408000002002F0A9F83868F92240300178114088
:104090000170002005B0F0BDFB20DBE7FB20E6E768
:1040A000012D04D007F0F0FF012804D005E01078BE
:1040B00004F08CF9EEE7D12C02D02F2C1ED02AE090
:1040C000082D28D102223146684602F002F8022269
:1040D000B11C01A801F0FDFF0222311D02A801F070
:1040E000F8FF0222B11D03A801F0F3FF684683899F
:1040F0000289818800880AF0B2F8CBE7012D0AD145
:104100003078002807D0082805D2492239685201A2
:1041100089188876BDE71220BCE7000068030020FC
:10412000D007002070B5184C0721206809024118FB
:1041300000260E77154B4E770622FF21C01801F09E
:10414000CCFF392520686D0140190671202141718D
:1041500007F09AFF012814D01F2021680B4B491942
:1041600088712068093307220021C01801F0B5FFCB
:10417000064B206810330522FF21C01801F0ADFF67
:1041800070BD5F20E9E70000680300201E07000003
:1041900000210B200007026852070DD50268042396
:1041A0009A430260026808231A43026004E0491C33
:1041B000052901DD0020704742689207F7D5416864
:1041C000C907FCD0806880B2704710B5FFF7E0FFE8
:1041D0000446FFF7DDFF0004201810BDFEE770471E
:1041E00070470000F0B5454C13252668ED017019A5
:1041F00080690027416B4248AE368DB0814242D083
:1042000006216846FFF76CFE69464879C0210843DD
:104210006946487120680622401980692430FFF7FA
:1042200035FE0746102105A8FFF75AFE2068102228
:104230004019806905A9001DFFF728FE07431021DA
:1042400009A8FFF74DFE206810224019806909A9CE
:104250001430FFF71BFE0146394313D1206829496A
:1042600040198069264F40188008810026480818A8
:1042700039460490FDF748FC04980068B84201D123
:10428000002700E0FB27226850198069A6322430FD
:104290000190062001460090002008F076FC0028DE
:1042A00002D12068A6300190701D009A019901F09A
:1042B00010FF2268102631460020803208F065FC8D
:1042C000002807D020683246411989698030091DCD
:1042D00001F0FFFE226831460020903208F055FCC4
:1042E000002807D02068324641198969903014317E
:1042F00001F0EFFE38460DB0F0BD0000680300206D
:10430000AAAAAAAA3400FCEF0000041030B50F4B93
:104310000F4D1B6804465B1940331B7A412085B062
:104320009B0710D56B469981DA8100201882042002
:10433000588203AA04A96D4607C502231A46012123
:104340002046FFF73FFB05B030BD000068030020AA
:1043500064070000024600200146535C002B00D099
:104360000120491CC9B20629F7D3704702480068EA
:104370002030C07F704700006803002070B50E46F3
:10438000054601462022002001F05CFF040023D0F6
:10439000284600F06BF8050027D02879B04224D1D8
:1043A000A87880071FD4A06801210173A0680021AC
:1043B0004673A06802268673A068C173A068017462
:1043C000A06841740620E0802146052000F0BEF977
:1043D000002803D0412509E064250BE0A87830438C
:1043E000A870002506E0462500E042250021204671
:1043F00001F084FF284670BD7CB514460D460028A8
:104400001ED1052D02D00B2D07D011E06279217944
:104410006088A31D03F022FF0AE021461231881FA5
:1044200001910090627921796088A31D03F02DFF2E
:1044300021462846FFF7B4F92146284600F0B4FA91
:104440007CBD70B505460C46002000F00FF8002832
:104450000BD02905090D018000218170002C01D1AC
:104460000821817001210171C17070BD30B5024613
:104470000A4801230068DB020021C318A030047B36
:1044800007E0586B0D0140190588954204D0491C7E
:10449000C9B28C42F5D8002030BD0000680300206E
:1044A00030B50A49012309680246DB020020CB1817
:1044B000A031097B07E05C6B0501641924889442F4
:1044C00003D0401CC0B28142F5D830BD6803002043
:1044D0008068017A407A0002081880B270470000B4
:1044E00070B50023134A1DE00125ED0240191901A2
:1044F000466B0024C81C345410684019466B081DD4
:10450000345410684019406B445210684019466B8F
:1045100008460830345210680C314019406B5B1C5F
:104520004450DBB21068AC21095C9942DCD8002011
:1045300070BD00006803002010B5024688680C4674
:10454000817AC07A0002081881B2E088001FE080FA
:10455000042909D005290CD006290FD001212046B5
:1045600001F0CCFE002010BD21461046FFF70AF8EE
:1045700008E02146104600F03FF903E021461046CE
:1045800003F06EFC0028EED0E188091DE18010BD2B
:10459000F3B581B00D4600268888FFF767FF070056
:1045A00056D0287B3C46083400900228F86833D067
:1045B000002845D0E888002810D0218840182080A5
:1045C000284601F015FE01466068806801F0D8FABF
:1045D0000120616801F0CCFD0020E88020880428DB
:1045E00028D36068FFF774FF001D218880B28142E4
:1045F00026D881421BD16168C88061680198FFF7A5
:104600009BFF0146002000290ED06168A94201D11C
:104610006060208045261FE0002801D04526DDE7A8
:104620006560E8882080D9E7606020800BE0452E37
:1046300006D008E0452E06D1384600F0C7F90BE059
:10464000384600F0C3F9002E06D10098012803D1A6
:104650000121284601F052FE3046FEBD024610B54B
:104660000020002A05D0012A02D11046FFF790FF52
:1046700010BD1046FFF760FF10BD70B50546801EE7
:104680000C46030005F01FF80A0C1D1D06170B0B46
:104690000B0B060B0A4620782946FFF7ADFE70BDCE
:1046A0002846FFF77DF8608803F020FD2146284664
:1046B00000F07AF970BD4A890888A11C03F00EFE4B
:1046C00070BD62880978284603F030FD70BD000097
:1046D000F0B585B0FFF7E4FE1B4D04462868A03016
:1046E000007BA0422DD920463230694608736846C7
:1046F00004F0D8FB01262868F6028019426B0021DD
:1047000024011153286827468019426BE01C11547C
:1047100028680C378019426B201D115428688019B5
:10472000406BC05900280CD0012101F0E7FD296839
:1047300000208919496BC85129688919496B0834C7
:10474000085305B0F0BD00006803002010B50C460A
:104750000146042805D0052903D0062901D05020A0
:1047600010BDA068A2790272E088020AA0684272B5
:10477000A0688172A068090AC172E088001DE0800B
:10478000022020732046FBF7DFFF0028E8D0E088F6
:10479000001FE080412010BDF8B53238010602202C
:1047A000144E009001253068ED020C0D421939219C
:1047B0004901526B4118C97B175B012349070CD58E
:1047C000083040191E220221C06C05F04FFB010089
:1047D00003D08F80009805F035FB3168002049191F
:1047E0004A6B211D505431684919496BE41C085526
:1047F000F8BD000068030020F0B50D468DB0002123
:104800000A91A96800280F7B02D0012822D0C3E0BA
:10481000A888FFF745FE624E04463068A030007B52
:10482000A04215D9122F08D15E480290204632309E
:1048300069460873684604F0E9FA01203168C0024D
:104840000818406B210140188178FD2211408170C9
:1048500000219EE0A888FFF723FE06465048AC22C0
:104860000168525CB24218D90120C0020818406B9E
:1048700032018418A278100710D5122F10D15007DA
:1048800010D4A9882A46422005F06AFEA0780421A7
:104890000843A070A868407B207179E0132F0AD0EC
:1048A000012F41D0A868417BA888FFF767FD0A90D7
:1048B00000286DD070E0A868E778437BBB4267D1E1
:1048C000520765D5027C407C01230002101887B294
:1048D00042200490A8880690392040010818C07B27
:1048E00080070FD5D802083108181D22C06C049922
:1048F00005F0BCFA010005D0069A8A80CF800498A2
:1049000005F0A0FAA078FB210840A070E078401CD8
:104910000006000EE07001D10120E07068463236DA
:10492000067304F0BFFA33E0100731D4A868E178C9
:10493000407B88422CD150072AD5FB200240A27030
:10494000E078401C0006000EE07001D10120E0700C
:1049500068463236067304F0A5FA11482022006832
:104960009101083040184224AE880223C06C2146D1
:1049700005F07CFA01000BD0A868437B877BC07BE5
:104980008E80000238188B710881204605F05AFA93
:104990000121284601F0B2FC0A980DB0F0BD0000DC
:1049A000680300203075000010B5022809D00528E2
:1049B00001D00B2808D1084609794088FFF741FD4E
:1049C00002E04888FFF784FE002010BDF8B50546D8
:1049D000807810210843A870422000901148C90136
:1049E000006801270830401802263B462122C06C8F
:1049F000009905F03BFA04000AD02771667132462F
:104A00002946A01D01F065FB2146009805F01AFA21
:104A1000E868002805D0012101F070FC0020E86062
:104A20002881F8BD68030020FEB50F460646002425
:104A300007F044FC054607F0B5FB082D01D3082814
:104A400011D202A9684600F091FA002F684606D0FC
:104A50004079400601D5022102E0032100E0017AFD
:104A6000B14200D041242046FEBD0000FFB50746FC
:104A70008DB000200890079077481E46016877485F
:104A800015460C182320400108184771C271002BED
:104A900001D0002101710E9800287DD0FFF75AFC4B
:104AA000002879D0002E03D020342079012873D03B
:104AB000FF24002E07D0022D02D0032D02D002E0E9
:104AC000002500E0012564486549006840180B9006
:104AD000022F01D0032F6AD1684605700622401CC0
:104AE0000E9901F0F6FA6946002001F065FCFF28F6
:104AF00003D00B99C2005118CC7911239B01564960
:104B0000002E14D00968CA189476232300225B0172
:104B1000C9180A71FF284AD0372044434E48FF2164
:104B200000682F312018095C002904D015E00A68BC
:104B3000D1188C75EEE70146FF31FF3047311F3049
:104B400001F056FD4448062200682118FF3105A8EF
:104B5000483101F0BEFA012007903F49FF22086862
:104B60004E322018125C002A1CD10146FF31FF3062
:104B70004031303001F03CFD3748062200682118F2
:104B8000FF3103A8413101F0A4FA01200890002E62
:104B900008D00121304800E018E0026823204001DD
:104BA000101801710798002801D0002E0AD0324653
:104BB00029460E9800F044FD0898002806D00121EF
:104BC00003A815E03246012105A8F3E7002F06D01F
:104BD000012F1AD0022F02D0032F07D115E01E4853
:104BE000062201686846783101F073FA00216846B0
:104BF00000F090FD0124A402002F10D0012F16D048
:104C0000022F0CD0032F24D111E013480622016893
:104C100014480918684601F05CFA0121E7E70E48DC
:104C20000068816F041909027B30E1650CE00A48D5
:104C300005680C482818FBF7F5FA00022C19401CEF
:104C4000E0650848C01C2818FBF7ECFA0002000ACF
:104C50002066002011B0F0BD680300205808000055
:104C60006C040000330700000020704770B50D464B
:104C70000B490024884204D8032107F0B7FA08281A
:104C800001D302240AE00749012209682031C97DC5
:104C90008240114202D1294600F0F0FA204670BD50
:104CA000FF0E000068030020F0B5824D04468249E3
:104CB000286885B04018019007F074FA002C7DD068
:104CC00008280DD34220074603907C480024029018
:104CD00007F0D0FA0090082004900098082802D32A
:104CE0000C2005B0F0BD00F067FC00F057FB009809
:104CF00073498001421813212868C901401881882E
:104D000001988030036BC0315980016B098000210C
:104D1000C94301820021456ACB1DEF54856AEF54D7
:104D2000C56AEF54056AEF54066B039DF554039B67
:104D30003F0A1B0A0393466A029D0B1DF554866ABF
:104D4000F554C66AF554066AF554066BF554029B91
:104D5000491C1B0AC9B202930329DCD30099112311
:104D60004907090E456A0B43AB72856AAB72C56A87
:104D7000AB72019B1D7E0223022D0BD1456AAE7AD8
:104D80001E43AE72856AAE7A1E43AE72C56AAE7AB3
:104D90001E43AE72466A0127F772866AF772C66AC8
:104DA000F7721943036B9972036A9972036B0321BB
:104DB000D972016ACF7200210B4600E04EE05354D5
:104DC00055186B71491CC9B20529F6D38025957217
:104DD00001992031CE7BD672868C1682068E568241
:104DE000384E9661384ED6613E462027BE54D37564
:104DF000019A127E002A04D0012A04D0062A12D178
:104E000010E018240FE00322836828245202934202
:104E100009D1C368934206D100220492FF22563280
:104E2000028200E01024497B002904D0012904D02B
:104E3000022906D103E0C02102E02C4301E0402119
:104E40000C430499C2680902806853184218E108AB
:104E5000C900491C009809F00DFC42E772B6082809
:104E60000CD209212A68090251188B6E6021414336
:104E7000891C5C5C6407640F012C01D062B616E0EB
:104E8000F024A45C002C04D01126FF24B601921952
:104E9000947500225A543F212A68490151180B7F0A
:104EA0000122824093430B7762B60BF04DFB00204A
:104EB00017E7000068030020580800008100B000D8
:104EC000CC000020D6BE898E55555500FFB50C4646
:104ED00091B00146102204A801F0FBF810222146EF
:104EE00008A801F0F6F804A8009008A801900CA802
:104EF0000290002668460673184819490068092779
:104F00004518FF062C46803472B66846007B0028A0
:104F100008D062B610220CA9139801F0DAF800202C
:104F200015B0F0BD286D3969401A0E490002098894
:104F3000000A09070BD51499002908D10A49FF383E
:104F4000884204D368460673606430BF03E0684655
:104F5000666407F09BF862B6D6E70000680300209D
:104F600058080000C000002002FF7F0070B5044612
:104F700008480D460068084946182046316807F081
:104F800009FD72682271100A6071100C28700020EF
:104F900070BD0000680300205808000070B50D4681
:104FA000044607F0FFF8082801D31F2070BD094808
:104FB0000949006840180022416B931CC95CA15448
:104FC000521C062AF8DB406B00784006C00F2870A0
:104FD000002070BD680300205808000030B50C4A5E
:104FE0000C4B1268D218936A2032147B1F2C02D902
:104FF0000020087030BD002205E01D780570521CAD
:10500000401CD2B25B1CA242F7D30C7030BD000032
:10501000680300205808000010B504460448807A50
:105020008006400F06F0D4FF2070002010BD000065
:1050300000010020F8B50C46054607F03FF90828A6
:1050400001D31F20F8BD0A4E13273068FF01C01995
:10505000806806222946801C06F0B1FF3068C0191E
:10506000806800784006C00F20700020F8BD000066
:1050700068030020F8B55E4B5E481E6800223018B9
:1050800001462031027613240D460A73E4013119DA
:105090008E68FF2728368663896849375031416317
:1050A000083181620721A973416B524E0A70456B2A
:1050B000062169701B68FB2519198C687834C46354
:1050C00089680824A03101640146C0314A720A721D
:1050D000CC738C731B240C824F828D82103ECE8247
:1050E0000D834E838C83CF8343495A6519651323FF
:1050F0003F4C0146DB012668B518F618B7686035E5
:1051000016462D7E2A36BD552668F618B76816460F
:105110005236BD552668F618B76816467A36BD551C
:105120002668F618B7681646A236BD550D70521C93
:10513000D2B2491C062ADED300230B70826B0621F3
:105140005170426B5170024680325361194693612F
:105150001BE009252D025B1960254D439F6E2B46F0
:10516000264E0A33FE52092327681B02FB189F6E46
:105170002B4600262033FE50092327681B02FB180C
:1051800024359B6E491C5E51C9B22368AC25ED5C89
:105190008D42DED8002501219583C9020184556422
:1051A0000920216800020918896F936B891C5980B6
:1051B00021680818806F516B801C48801048818DD1
:1051C000206840300186FBF7A9FD3F212068490196
:1051D000411841220D77520108218018817000F09A
:1051E00011F809F047F920682030C574F8BD0000B7
:1051F0006803002058080000862E0000FFFF000012
:10520000B007002010B5084C2F2320685B01F8225E
:10521000FF21C01800F061FF1722216800209201D1
:105220008918087710BD00006803002010B50446F7
:105230008088032106F0DAFF022172B6082815D211
:105240000D4A1368092212029A186023926E58437D
:10525000831CD35C002B09D0002110182160016A47
:10526000002906D0416A0C604521446262B60846B6
:1052700010BD0462F8E7000068030020F8B5064698
:1052800024480F460068244944180921090240189F
:10529000816E602070430D18304607F085FC0028B1
:1052A00016D02046CF30CC3472B602780121B140FE
:1052B000082A02D36A7992070ED06879800726D42B
:1052C000144800682030C27D0A43C2753A201FE0AE
:1052D0002046CE30CA34E7E77A06104B5208D2187F
:1052E0006B6B1A603A0601D4132200E012226B792C
:1052F00013436B710670288B2080403505486F770B
:1053000000682030C27D8A43C275002000E00C2076
:1053100062B6F8BD680300205808000003020200CE
:105320001F20704770B51B4A1B4B1268D418E36BE3
:105330000833A3621F2901D9302070BD0022656B9C
:10534000E66BAD5CB554521CD2B2082AF7D30022EA
:1053500005E00578521C1D70401CD2B25B1C8A42CD
:10536000F7D32C200155E06B891D417006F01AFF20
:10537000217E01290CD008280AD2616BE06BE16321
:1053800060638034616A4880A16A4880E16A48802D
:10539000002070BD680300205808000030B5314877
:1053A000314900684018416B037E0A781B07920957
:1053B00092011B0F1A430A70C16B037E0A781B0708
:1053C000920992011B0F1A430A70816B0A789209A5
:1053D0009201121D0A70016C0A7892099201121D45
:1053E0000A700021024620320BE0836A456B5C5C48
:1053F0000B460833EC54846AC56B645C491CEC545E
:1054000089B2137B8B4201D91F29EED3017E01297A
:1054100007D0D9B2426B891D5170416B083181624E
:1054200030BD0346C26B1033083281688262446B20
:105430000C22627000221546446B083561551970C4
:10544000090A5B1C032A00D1C168521CD2B2062A89
:10545000F1D3406B02785206520EC9010A43027022
:1054600030BD00006803002058080000F8B5504F18
:10547000064650493868451806F094FE082812D1AF
:1054800006F01CFF082803D02320405D02280AD024
:10549000386834462030807D093400070028307990
:1054A00003DB032803D00C20F8BD012804D02046DC
:1054B000FEF750FF002806D0327AF079002321460B
:1054C000FFF7D4FA0BE00023F0791A461946FFF7EC
:1054D000CDFA11223968FF209201891888752C466F
:1054E0008034216A288F48803079012821D0308883
:1054F0000002A06070880002E0600020C0432082AB
:10550000307902281CD003281CD004281CD0012884
:105510001AD0052800D3FF20287628462030B179FC
:10552000417371790346817327200022CE070FD083
:1055300011E003204002A060E060FF205630DEE76B
:105540000620E9E70220E7E701200021B171E3E747
:105550004908401CC0B2521CD2B2022AE6D3052927
:1055600002D1801CC0B20321272801D9C01EC0B2BD
:10557000666A228D3280A66AA28D3280E66AA28C8B
:105580003280666AAA8E7280A66AAA8E7280AA8EFD
:10559000E56A6A80D873032902D0012904D005E0A6
:1055A000A16AA08C088001E0606A00800020F8BD3C
:1055B0006803002058080000FEB51F481F49006816
:1055C0004718694601A8FFF7D1FCBE6B7D6BFC6BE9
:1055D0003B6C72B6002001AA811C175C6F54175CEB
:1055E0007754175C6754175C401C5F540628F3DB44
:1055F000694609782A78BF20C9070240490E0A4344
:105600002A70694609783278C9070240490E0A4370
:105610003270694609782278C9070240490E0A4368
:1056200022701A78694602400878C007400E02438B
:105630001A7062B60020FEBD680300205808000002
:10564000034610B50A48002A006806D0094A8018A7
:1056500072B60A461946103006E0064AE43A801847
:1056600072B60A461946083005F08DF962B610BDCB
:10567000680300203C090000F8B514460A460546B8
:105680000121104606F0B2FD0146082801D3022090
:10569000F8BD1C480922006812028018826E602042
:1056A00048431018184A89018B18426B002D07D007
:1056B000164972B643799B070DD062B63A20F8BD01
:1056C00000215F18665C2037BE73491CC9B21029DF
:1056D000F7D30F49EDE71160417901221143417180
:1056E000002D09D00748492200680821520180187E
:1056F000C17162B60020F8BD012201695204114354
:105700000161F6E768030020CC00002003020D06CB
:1057100003010500034610B50548064A00688018D5
:1057200072B60A46194605F02EF962B6002010BD81
:105730006803002058080000F0B5144A144B1268A2
:10574000D3181A6C154608321F2901D93020F0BD34
:1057500000249E6B1F6C365D3E55641CE4B2082C21
:10576000F7D3002405E00678641C1670401CE4B2F0
:10577000521C8C42F7D3186C891D4170986B9D6345
:1057800018648033186A45800020F0BD680300204B
:105790005808000030B41348092203681120C001E2
:1057A0001818D206806A11690F4C411A090225881F
:1057B000090A2D0702D430BC01207047647A9B6A25
:1057C000E400E3188B4209D20123DB05994205D29C
:1057D00059000843506030BC0120704730BC0020A5
:1057E0007047000068030020C0000020FEB511488B
:1057F000114900680622461810494118684600F011
:1058000068FC01226946304605F0BDF8B56BF46BC3
:10581000736B366C00206A46811C175C5F54175C02
:105820006F54175C6754175C401C77540628F3DBF1
:105830000020FEBD68030020580800003307000068
:105840007CB50E4C0E492068062245180D494118BA
:10585000684600F03EFC296A06226846891C06F06C
:10586000AEFB13212068C9014018816806226846F2
:10587000891C06F0A4FB00207CBD0000680300200A
:105880003C0900003307000001207047704700000A
:1058900010B50E4900220B68FD21C90059182031AE
:1058A000897E08290FD2092424021B199B6E6024CB
:1058B0006143591803688C6BA34204D14068C96BDB
:1058C000884200D10122104610BD0000680300206C
:1058D000F8B51D4614460646002706F0D5FB0128FC
:1058E0000CD01F2071780840060036D00020E861F7
:1058F00007F074F9002803D0E86907E0FF20F1E71A
:1059000069893246012000F09DFCE861002801D041
:10591000102722E0E07D80214840E0751049286989
:1059200008421AD06079401E60716079FF2814D156
:10593000A079401EA071A079FF280ED1E079401E09
:10594000E071E079FF2808D1207A401E2072207A89
:10595000FF2802D1607A401E60723846F8BD000010
:1059600020280000FFB582B000230193059B012B86
:1059700030D04B8C224D1C010B8C9C46CB7E6B4354
:105980008D8BAE46CD8B1646403697690096A74262
:1059900006D19689664503D1009E3688AE4201D075
:1059A0004026019696790427760876003E43967144
:1059B0009461546164469481009A1580059A012A85
:1059C00017D00B6170464A68400010184860019873
:1059D00006B0F0BD034640331D461B8E084E1C0129
:1059E000AB8D9C4660231B5C7343AE8C2D8DB646FD
:1059F000C9E783657146C26C49005118C164E6E786
:105A0000E2040000026800230B80824203D09BB2B4
:105A100012685B1CF8E77047086042684A60426899
:105A2000116041607047026804E08A4201D10120A0
:105A3000704712688242F8D10020704702680A60FD
:105A4000126802600A68126850600A6800201060DC
:105A500009684860704700B50B46FFF7E4FF00286F
:105A600008D003CB083B086003CB41600020083B13
:105A70001860586000BD704770477047704700005D
:105A800030B51CA003C893B0129111901C221BA129
:105A900007A8FAF787FB002011AA07AB1A21145CAC
:105AA0000D1A401C5C550628F9DB1BA007C80EAB7D
:105AB00007C30021084606F005FF0020039004906C
:105AC00005900EAA09216C46069007C403460246BB
:105AD000014604F005FB010003D012A003F0D6FD3F
