:020000041004E6
:1000000000600020759C0410E97B041081570410E7
:10001000AA5555AA45554C420000000000000000BA
:100020000000000000000000000000003FB70410C6
:100030000000000000000000E394041069BD0410FB
:100040007B360410B97C04100000000000000000A2
:1000500091C104103DB70410211904101DC30410F0
:100060000000000000000000000000000000000090
:100070000000000055030410855704108357041036
:1000800000000000E3760410E5760410E776041023
:10009000E9760410959C0410157D0410E91E0410E7
:1000A0000000000000000000000000000000000050
:1000B0000000000000000000000000000000000040
:1000C000EFF31482EFF309811C4880F31488BFF327
:1000D0006F8FF0B543464C4655465E466746F8B4CA
:1000E000174CEFF30883236006B4164C2068164CB7
:1000F0002060164C2068164C2060164C2068164C68
:100100002060164C276800202060BFF34F8F30BF5F
:1001100027600B4C246884F3088882B003BCF8BCC9
:100120009846A146AA46B346BC46F0BC04BC80F340
:10013000098881F31488BFF36F8F10470000000017
:100140000800002004ED00E0E802002024ED00E0BB
:10015000EC02002000E200E0F00200200800204055
:100160000448854600F0A8F8004800477D2F051098
:10017000C046C0460060002030B50B460146002056
:100180002022012409E00D46D5409D4205D31D469D
:100190009540491B2546954040191546521E002D95
:1001A000F1DC30BD10B5441A0346944209D28318DD
:1001B000891803E0491E0C785B1E1C70521EF9D290
:1001C00010BD0C460443A40703D009E010C9121F58
:1001D00010C3042AFAD203E00C781C70491C5B1C83
:1001E000521EF9D210BDD2B201E00270401C491E6D
:1001F000FBD270470022F6E710B513460A460446C4
:100200001946FFF7F0FF204610BD30B50446002028
:10021000034600E05B1C934203D2E05CCD5C401BD4
:10022000F8D030BD0321001D401E037812021A438E
:10023000491EF9D510467047F0B51FB40646002098
:1002400082B005464024019100901BE001992246AE
:100250000F46304600F042F8049A059B801A9941F7
:1002600010D310461946224600F016F8361A8F4170
:100270000197224601200021009F00F00DF8381858
:100280004D4100902046641E0028DFDC019B009851
:100290002946324607B0F0BD10B5202A04DB0146DE
:1002A000203A9140002010BD914020239C1A034623
:1002B000E3401943904010BD064C0125064E05E071
:1002C000E36807CC2B430C3C98471034B442F7D377
:1002D000FFF74AFFDC6905107C6A051010B5202A7B
:1002E00004DB0846203AD040002110BD0B46D34025
:1002F000D0402024A21A91400843194610BD70B581
:100300008C180578401C6B075B0F01D10378401CEB
:100310002A1106D10278401C03E006780E70401CBA
:10032000491C5B1EF9D12B0705D40023521E0DD4A6
:100330000B70491CFAE70378401CCB1A921C03E0AF
:100340001D780D70491C5B1C521EF9D5A142D8D3F3
:10035000002070BD7047F0B50F46B5B015460021BE
:1003600030AA0F23445C5E1A491C94551029F9DB0E
:100370001022694630A800F013FB0026B400E019F3
:10038000401CFFF74FFF395D000208430321891B22
:1003900089002CAC761C6050042EEFDB2146102324
:1003A0006A46084600F0C6F900200326311A890083
:1003B000635C8200AB54635A52191B0A5370635832
:1003C000401C1B0C93706158090ED1700428EDDBA2
:1003D00035B0F0BD70B5BAB0054600200C460090AF
:1003E00020206946087210200A9038901E46039219
:1003F00001A800F085F92246294601A800F008F876
:100400006A46314601A800F045F93AB070BD0000D7
:10041000F7B592B00F46040004D0002F06D114980F
:10042000002803DD6120400115B0F0BD14980028BC
:1004300004DB102804DA2079800601D49448F3E71D
:100440002079410701D4810702D59148401CEBE790
:100450004021084320712046143000250F901430AD
:1004600001901EE00026B00004904019C0190390CE
:10047000FFF7D8FE00BA010A03980902C07807AA5C
:1004800001430498761C0019406941400498042EE9
:100490001150E8DB636A07A8019A0F9900F07CFA13
:1004A000059D28461030059014998842DADB2079A2
:1004B000800620D400291EDD0026B00004904019DB
:1004C000C0190390FFF7AEFE00BA010A03980902B3
:1004D000C07807AA01430498761C0019406941407E
:1004E0000498042E1150E8DB636A07A8019A0F995B
:1004F00000F052FACAE000200B900C900D900E9084
:100500000BA9636A0846019A00F046FA0B98872106
:10051000C00F48430B990C9A4900D20F11430B911D
:100520000C990D9A4900D20F11430C910D990E9A16
:100530004900D20F11430D910E99149A4900414080
:10054000284610300E9190421CD10026B000029037
:100550004019C0190490FFF765FE00BA010A04981B
:100560000902C0780BAB01430298761C001942695E
:100570000298185842405140029807AA1150042E80
:10058000E4DB79E00B988722C00F50430B9A0C9B59
:100590005200DB0F1A430B920C9A0D9B5200DB0F9B
:1005A0001A430C920D9ACB0F52001A430D924A0037
:1005B000424014980E92401B0390C017820F03987C
:1005C000002610188010029019E0B0001090401919
:1005D000C0190490FFF726FE00BA010A0498090228
:1005E000C0780BAB01431098001942691098185855
:1005F00042405140109807AA11500298761CB04210
:10060000E3DCB00001190BAA49691258514007AA4E
:100610001150039B00211B1A42199C4696460BE081
:1006200072465218BA5CCD0018235B1B9A4007AB88
:100630001D586A401A50491C8C45F1DC002909D02C
:10064000CD00182107AA4D1B13588021A9404B400B
:10065000135005E007A90A580123DB075A400A5046
:1006600007A90BAA05E0B00003195B6915586B4098
:100670000B50761C042EF6DB636A07A8019A0F99CB
:1006800000F08AF920790421084320710020CBE68C
:100690001D0C0000F8B516460F46040009D0002EC8
:1006A00007D025468035E86D401E102804D3134836
:1006B000F8BD61204001F8BD2079400604D4002235
:1006C00011462046FFF7A4FE20790221084320713D
:1006D000002018210CE0C217920F12189208920005
:1006E000121983075269DB0ECB1ADA403A54401CC8
:1006F000EA6D8242EFDC00203260F8BD1F0C000082
:1007000010B5040007D002230022A16800F00CFA03
:10071000010003D00CE06120400110BD10202061D9
:100720000020024683001B19401C5A610428F9DB93
:10073000084610BDFFB5D908490083B0891D029154
:100740000368116854684B4041689568614084684B
:10075000C0686C40A446D4681E0E60408B4CC5B285
:10076000A65D655D3606354367460E023F04360ECC
:100770003F0EA65DE75D36043F023E433543AE467D
:100780000F0EDDB2E75D665D3F063E4365462F0214
:1007900005043F0E2D0EE75D655D3F042D022F43DE
:1007A0003E43CDB20096665D65462F0EE75D1D04A3
:1007B0003F063E4307023F0E2D0EE75D655D3F0499
:1007C0002D022F433E4301966546EDB2070E665D4E
:1007D000E75D0D043F063E431F023F0EE75D2D0E11
:1007E000645D3F0424022743029C3E43641E103292
:1007F0000294002C63DD664C704620404300704636
:100800006449C00908401B21484343407046584092
:100810001821C841434070461021C84143407046EA
:100820000821C841434010685A4D43400098594F31
:10083000204041000098C00928401B2568434140E2
:10084000009818254840E841414000981025E841AB
:10085000414000980825E84141405068019D4140D1
:100860000198ED0920403D4040001B277D43684032
:10087000019F05467D401827FD416840019D1027D6
:10088000FD416840019D0827FD416840956868402A
:100890008446304620403F4DF4092C4040001B2543
:1008A0006C436040044674401825EC4160401024BD
:1008B0003546E54108246840E64170404BE7334C3B
:1008C000C5B2665D1D0E645D240626430C02250E2E
:1008D0002E4C645D65462D042F0E2C4D2404ED5DD9
:1008E0002D022C432643294C0096DDB2655D0E0E89
:1008F000A45D2406254364462402260E234CA45DF1
:100900000604370E214E2404F65D36023443254397
:10091000AE461E4CCDB2645D65461C4E2F0EF55D95
:100920002D062C4305022F0EF55D1F042E043D0EEF
:10093000164F7F5D65463F023E433443EEB2134D92
:10094000AF5D050E1148405D000607431802030E17
:100950000E48C05C09040B0E0C490004C95C936886
:100960000902084307431068009E63405168049CD5
:100970007040D268206075460498694041600498D0
:100980007A4083600498C26007B0F0BD106705101C
:100990007F7F7F7F0101010100B5FFF7CBFE00BD26
:1009A000F7B50298860800240DE00098A7003D18CE
:1009B0002846FFF737FC00BA000AE978000208432E
:1009C0000199641CC851B442EFDB0199029A0846B0
:1009D00000F002F8FEBD0000F0B59208002303E02D
:1009E0009C0005590D515B1C9342F9DB4D4FF81FDC
:1009F000F938042A48D0062A6DD0082A43D10023AA
:100A0000CA6915022D0E140E455D045D2D062C439A
:100A100015042D0ED2B2455D825C2D0412021543E1
:100A20002C439D007D590A686A40544001225B1C9A
:100A30000C62940065180C59EE69521C66402E62D7
:100A4000042AF6DBCA6A150ED4B2455D045D2D0694
:100A50002C4315022D0E1204455D120E825C2D04EE
:100A6000120215430A692C43544005220C6394007A
:100A700065180C59EE69521C66402E62082AF6DB96
:100A80002031072BBCDDF0BD0022CB681D022D0EEE
:100A90001C0E455D045D2D062C431D042D0EDBB29E
:100AA000455DC35C2D041B021D432C4395007D59FD
:100AB0000B686B405C400123521C0C619C00651864
:100AC0000C59EE685B1C66402E61042BF6DB10317E
:100AD000092ADADDF0BD0022CB681D022D0E1C0EA6
:100AE000455D045D2D062C431D042D0EDBB2455DD6
:100AF000C35C2D041B021D432C4395007D590B68DC
:100B00006B405C400123521C0C619C0065180C5921
:100B1000EE685B1C66402E61042BF6DB1831092A57
:100B2000DADDF0BD10680510F8B59E468C46002849
:100B300007D0002905D059078C0F002A04D1012CB9
:100B400002D061204001F8BD416A102903D0182964
:100B500001D0202905D1012C05D00169491E102999
:100B600001D31E48F8BDC2600179F9231940017113
:100B7000012C20D000210B468D002D18491C6B61E3
:100B80000429F9DB0021182712E0CB179B0F5B1813
:100B90009B089B001D182B46143300938B07565C53
:100BA000DB0EFB1A6D699E403543009B491C1D609E
:100BB00003698B42E9DC0179C9070CD16146816088
:100BC0007146C90701D0032C05D10146426A28317C
:100BD0006046FFF7E5FE0020F8BD00001F0C000096
:100BE000F0B57E4D85B02869800705D506F082FDF9
:100BF00028690221884328610AF06CFE784F00269C
:100C00003878012827D17748007863281FD06D28CD
:100C100009D072281ED1BFF34F8F74497248C86043
:100C2000BFF34F8FFEE709200AF0A0FD09200AF06C
:100C30009DFD09200AF09AFD6D200AF097FD05241C
:100C40006B48005D0AF092FD641EF9D502E0694828
:100C5000012101703E70684A012710786749684C8D
:100C60007F02012801D00E6033E00868FF23401C9A
:100C7000F533086098422CD35F48624906705F489C
:100C80000660002009220B7808E0E9886254491CBC
:100C900089B2E980B94200D1EE80401C9842F4DB71
:100CA00058480670544806705448066011E02318EE
:100CB000A8890122401C81B228880CF015FF2889E0
:100CC000401C80B22881B84200D12E811E2001F044
:100CD000F1F8E98828898142E9D128694A4CC0079E
:100CE00025D02869800522D42869C0054AD447A0A8
:100CF0000FC801AE0FC6102201A9484806F0E1FF57
:100D00004648009002232246012128880CF06EFC00
:100D1000010003D042480BF0CBFD02E041480BF04C
:100D2000C7FD2969FF220132114329612AE02869A0
:100D30002E46C00726D03069000523D4306940050F
:100D400020D439A00FC801AF0FC73448102201A921
:100D5000103006F0B6FF31480223103000902246D2
:100D6000012130880CF042FC010003D032480BF026
:100D70009FFD02E031480BF09BFD306901218902A3
:100D8000084330612869C00726D02869800523D52B
:100D90002869000520D5286940071DD428A00068CF
:100DA0000290284801680A20414368460BF03AF94E
:100DB00004E068460BF076F8002809D1688902AB98
:100DC000801C81B2022228880CF053FE4628F0D005
:100DD000286904210843286105B0F0BD0C030020F8
:100DE000F4020020050300200400FA0500ED00E0F5
:100DF0000603002003030020F6020020F802002072
:100E0000C0050020F5020020FFFF0000669A0C20BC
:100E10000008969EE2119EB1E1F273D9A003002072
:100E200094690510C0680510669A0C200008969E0B
:100E3000E2119EB1E2F273D94C6905107C6805108D
:100E400001000000A46405107FB5054698680122E2
:100E500002739A681C4651739868022202A90E30E8
:100E600006F02FFFA16805200D74E0807FBD70B5EE
:100E7000064608881D460C46001D81B21346022214
:100E8000304607F0F5F921882B46891C2180091D81
:100E900089B20222304607F0EBF92088801C2080BE
:100EA00070BDFEB500240E462746056845E028685B
:100EB0000290A968022230460D3106F002FF308808
:100EC000B84209D087B2384603F090F8014601AA2B
:100ED000384604F02FFA019CA968022268460F31B7
:100EE00006F0EFFEE888401F81B22220005D002856
:100EF00006D001280BD0002811D0012814D01BE007
:100F0000E08B6A461288401E904206D307E0208C90
:100F10006A461288401E904206D20720FEBD6846EF
:100F200000880818E18B03E0684600880818218CC7
:100F3000884201D90D20FEBD029D002DB7D10020B1
:100F40003080FEBDFFB5C8880025401E83B00E4628
:100F500087B2012427E0B0680222083001196846F0
:100F6000091D06F0AEFE6846008803F03FF8010058
:100F70001DD068460A8D0088824212D001AA04F072
:100F8000D9F900280DD101992620405C400708D5E9
:100F900006986A00101802221C3106F092FE6D1CA1
:100FA000ADB2A41CA4B2BC42D5D30C98058007B046
:100FB000F0BDFFB5074683B0002000900D9803F008
:100FC00015F8069905460C310191002826D00837FE
:100FD000BD4223D0288D0E9988421FD80D99884292
:100FE00013D30E99884210D8294602222A3101983B
:100FF00006F067FE10220C99069806F05EFE0028A7
:1010000009D0298D0E98814208D02E462C6A2036B0
:10101000B4423FD140E005980021018007B0F0BD07
:10102000A18B0D98814234D30E98814234D820464A
:1010300020300290C078012808D0204608301022C5
:101040000C9906F03AFE002808D022E02146022240
:101050000831019806F035FE0698F0E7029880798D
:10106000400716D50098002801D1E08B0090E18B55
:10107000814211D105980222008841000498081885
:1010800021461C3106F01DFE059805990088401C7C
:1010900008802468B442C3D12D6899E7064800212E
:1010A00002684B20400110180170417003218170CB
:1010B000C1700020704700007403002070B50D4D12
:1010C000044601232868D902401890261A46C06CAD
:1010D00031460CF09DF8010003D030464C600CF016
:1010E00083F84B202968400109180878401C0870D3
:1010F00070BD00007403002010B50446002020825B
:10110000A074A168A16161612060204605F02EFEF7
:10111000452801D0412010BDA08803210EF038FCE5
:1011200004460FF05DFB002813D072B60A48012276
:101130000168492040010918487EA24010434876C2
:1011400062B6002012F01AFC002802D000200DF038
:101150004DF9002010BD00007403002070B5C17C63
:101160000E4D4906490EC174044601232868D90270
:10117000401890260022C06C31460CF049F801005E
:1011800003D030464C600CF02FF84B20296840010A
:1011900009184878401C487070BD00007403002096
:1011A000F8B516460D46074600240AF0ABF80028AD
:1011B00006D032462946384600F004FE044604E0D4
:1011C00020356879002802D00E242046F8BD287901
:1011D000C10701D1012E09D0810701D4022E03D00D
:1011E0004007F2D4042EF0D10324EEE70224ECE70A
:1011F000FFB581B00646684680890C9F0C460028E2
:1012000037D06946098A884233D87088C01FB842EF
:101210002FD3FD1DAAB20021204608F071F9002845
:1012200002D0642005B0F0BDA06806210173A0685B
:10123000022203A90D3006F044FDA068022204A991
:101240000F3006F03EFDA06802220AA9113006F018
:1012500038FD3A460B2120460B9B07F009F8E58044
:10126000212130698901084330610720B0730020D3
:10127000D8E74220D6E77FB50546684600890C4688
:1012800000281ED06946898988421AD8A06804219E
:101290000173A068022202A90D3006F012FDA068B9
:1012A000022203A90F3006F00CFD0520E080212169
:1012B00028698901084328610520A873002004B02B
:1012C00070BD4220FBE77FB50546684600890C46A5
:1012D00000281AD0A0680C210173A068022202A97C
:1012E0000D3006F0EEFCA068022203A90F3006F0D4
:1012F000E8FC0520E0802121286989010843286154
:101300000D20A873002004B070BD4220FBE77FB51C
:101310000546684600890C9E0C46002816D0694692
:101320008989884212D8A06810210173A06802221E
:1013300002A90D3006F0C5FCA068022203A90F30F7
:1013400006F0BFFC012E04D0022E0AD0422004B0C9
:1013500070BDA068022208A9113006F0B2FC072077
:1013600006E008AB10220921204606F081FF152077
:10137000E080212128698901084328611120A87390
:101380000020E4E77FB50546684600890C9E0C46C0
:10139000002816D069468989884212D8A068082199
:1013A0000173A068022202A90D3006F08AFCA06831
:1013B000022203A90F3006F084FC012E04D0022E75
:1013C0000AD0422004B070BDA068022208A91130E2
:1013D00006F077FC072006E008AB10220921204622
:1013E00006F046FF1520E080212128698901084385
:1013F00028610920A8730020E4E7FFB581B08C685C
:101400000A9E5220207388680D461F46022203A9B7
:101410000D3006F056FC3B4632460721284606F0C2
:1014200027FFF61CEE80002005B0F0BDFFB581B0AF
:101430000646684680890A9F0D46002827D0708896
:10144000C01EB84223D3FC1CA2B20021284608F0DB
:1014500057F8002802D0642005B0F0BDA86812211A
:101460000173A868022203A90D3006F02AFC3A464F
:1014700007212846049B06F0FBFEEC802121306901
:101480008901084330611320B0730020E4E7422053
:10149000E2E7000070B50E460D4915468A88521CD9
:1014A000904208D1002403E0285D0AF05FF9641C33
:1014B000B442F9DB70BD4988891C8842FAD128788A
:1014C0000128F7D10348016804221143016070BD6F
:1014D000200300201C030020034900280A7801D0C3
:1014E00000200870104670477803002070B5124C39
:1014F0000E462178012500291BD10146012006F066
:10150000CBFC60703146022006F0C6FC61784018C2
:10151000607031462031032006F0BEFC617840182F
:101520000006000E607004D106F02EFD022020702F
:101530000025284670BD00007803002070B5184DC6
:1015400090B02878002802D0012010B070BD6E46FF
:10155000002404F00CF9A100641C7050082CF8DB86
:101560006946012006F098FC0128F1D020220D499F
:101570006846FEF717FE0B492022203108A8FEF727
:1015800011FE6946022006F087FC08A9032006F038
:1015900083FC06F0F9FC012028700020D5E700004C
:1015A00078030020A06605107EB5044616460D4659
:1015B000684603F077FF6846037823704078287008
:1015C0006846807830707EBD70B500210C4A03E01B
:1015D000535C491C5918C9B2535C002BF8D1CE1C7E
:1015E00002243525202E04D2545451184D70887091
:1015F000CB7004490C704D708870CB7070BD0000CA
:10160000800300201C00002010B50AF07DFC1D4C5A
:101610004121206849014118097F00290DD1A030DE
:101620000079C00705D101F01BFF02F039FD09F078
:101630005DFC00F049FC00F045FF00F001F9206876
:10164000014640310A78C9798A4319D13E21095CA3
:10165000002915D10C490A88120711D50922D20692
:101660001269497A836AC90059181123DB01C0182D
:10167000806A801A00020012814201DA0CF00AFE30
:1016800010BD000074030020C000002010B5837F4F
:101690000122002492024168082B03D9422491427E
:1016A00002D310E0914201D242240CE001463422E0
:1016B000064806F006FB00F083F8002801DA48240B
:1016C00001E00BF04BF8204610BD0000D0070020D1
:1016D0003EB5174D15482968827F0846A0310A7328
:1016E00000246030047644768476E122C27680223B
:1016F000027702224277302008704C7002AA01A9BA
:101700006846FFF751FF68460078A222010168464B
:10171000007A891C000201436846007900030143F6
:1017200028681152A03004713EBD0000D00700208F
:101730007403002070B50AF0CDFB05F019FA06F02D
:1017400009FDFFF7ABFC04F09DF91A4C1A4920681B
:101750001A4D4018811013202A68C0011018C16268
:10176000616889080163A1688908416309F0F2FA98
:1017700029681F208001228B08188280628B0F232A
:10178000C280DB01A28BCB18DA87628C02802246F2
:101790002032127882703D2252010020891808738D
:1017A00001F0A0FC03F090FF0DF084F900F010FFB1
:1017B00070BD0000D00700200000FCEF7403002083
:1017C00070B50025ED430EF02FF801282ED0002330
:1017D00018490322888BFF24401E10438A7F593406
:1017E00062438218088B282460431218488B3024E7
:1017F000604312180846203040782C2460431018AB
:101800000D4A181884184869A0420DD10B4884422B
:101810000AD90D690EF008F8C1B2284600F00EFD95
:1018200000F048FE401B251A284670BDFF23B53343
:10183000CEE70000D007002089190000B809000099
:10184000F8B52C4F3C68206E5C34401C002814D046
:10185000002529480023C07B00283ED00926F60633
:101860002648002D1CD000210A460B464169521C17
:10187000994204D1002902D004E00125E9E7204B78
:101880009A42F2D32160006960603069A168000269
:10189000090E000A09060143A16000F033F81DE0BB
:1018A0003169A2680902090A150E08D0018BC9071F
:1018B00012D04169216000696060E37210E0881A0B
:1018C00000027D2300121B03984205DD100E000666
:1018D0000843A06000F016F8F8BD6360002DFBD04F
:1018E00003CC11F0F1FFFA2011F038FB396888625F
:1018F000F8BD000074030020F0070020000010482D
:101900008813000004490020086104480121006890
:101910006030C1717047000000001048740300205F
:1019200010B508F099F810BD70B5274A002110686D
:10193000034640304176017649204001181841762F
:1019400081760F202033987513230846DB01146835
:101950000546E4186468303521541468E418646856
:10196000615514683035E418646861551468E418EA
:10197000656804469034401CC0B229552D28E6D332
:101980001068C3185C6809231B02C318DC65254670
:1019900030359D6590345C65FF234830037043709B
:1019A0008370C3701F23037112684D208154074850
:1019B00001800921417105238371C1710372428144
:1019C00000F006F870BD000074030020C000002085
:1019D00010B5064801680648406A002803D0202256
:1019E0000DF057FE10BD0020087010BD74030020DC
:1019F000D0070020F8B5069C1F4615460646002C69
:101A000013D0A06802220D3006F05BF9E81E82B206
:101A10003B460721204606F02BFCE580A068012EFE
:101A200005D01D2101730020F8BD4720F8BD1B2102
:101A3000F8E770B515460646FFF7B2FB0446082DD9
:101A40000BD1052C09D1304609F05CFC002804D0EC
:101A500000894004800F00D00024204670BD24235C
:101A6000184204D0C81F092803D82032D1710020A1
:101A70007047422070470000F1B5FFB001248BB0E1
:101A8000600205900027CC4807970168CB48C94DF4
:101A9000081803908A980AAA0005000D05A908F005
:101AA0008BFF0690002872D104260AA805994218D7
:101AB000203AD27F0B2A23D00026002004900AA8C7
:101AC0008119022201A8029106F0FBF8684681887C
:101AD00009AB08AA039803F00FFC012817D00228CD
:101AE0007ED068468088854200D30546844200D96E
:101AF0002046044602988078012872D013363CE1D3
:101B0000491E761E36040591360CCFD1D5E70898CC
:101B10000090002F66D1009902222831029806F029
:101B2000CCF800281ED100982030017B02988078E4
:101B3000814217D1012808D1009802990222083069
:101B4000C91C06F0BAF8002815D00298807802283F
:101B500008D10098029910220830C91C06F0ADF88F
:101B6000002808D00098008DA84200D80546A04261
:101B700000D22046044602990AA88978012907D094
:101B800013360599B6B28E4204D3012707E006E169
:101B9000761DF6E78119022201A806F092F8039952
:101BA000009808318E462FE084466946026A8B8889
:101BB00020300DE0918B994203D3012F7ED19942C1
:101BC0007CD9A94200D80D46A14200D30C46126828
:101BD0008242EFD10498002804D16046006802E0F8
:101BE00015E0BFE08AE070450ED0018D994203D325
:101BF000012F09D1994207D98D4200D30D468C425D
:101C000000D80C46012F59D17045CDD1BAE00898C3
:101C10000090002F72D1009902221C31029806F028
:101C20004CF800281ED100982030C17802988078A6
:101C3000814217D1012808D1009802990222083068
:101C4000C91C06F03AF800281AD0029880780228B9
:101C500008D10098029910220830C91C06F02DF80E
:101C600000280DD00098808BA84200D80546A042DD
:101C700000D22046044602988078012826D003E04E
:101C800002988078012805D013360798B6B201284B
:101C90001ED021E000984A490089884216D18A98CE
:101CA00000F054FF0146009800F030FE0099098CC6
:101CB0004843009989694018022200E038E00299FF
:101CC000491D05F0FEFF01200790D4E7761DDCE7F3
:101CD000B61C0020B6B207900598864201D30127B2
:101CE00005E00AA88119022201A805F0EAFF039A7B
:101CF0000099083209980968944630E01AE086464F
:101D00006A46938820300DE08A8B9A4203D3012FD4
:101D10000ED19A420CD9AA4200D81546A24200D34D
:101D2000144609688142EFD1049800282AD102E0C4
:101D30000120049026E07046006860450FD0028DB7
:101D4000016A9A4203D3012F09D19A4207D99542D9
:101D500000D31546944200D81446012FE8D16045BF
:101D6000CDD10FE00298C078022805D10298007901
:101D7000292801D1B61CB6B2761D0598B6B28642A6
:101D800000D301270598811B042902D3864200D283
:101D900093E604980028FBD1A54203D906987FB0AA
:101DA0000CB0F0BD224629468A9803F081FD0690CA
:101DB000F5E70000FFFF0000740300206407000047
:101DC0000229000070B515460C46064609F082FA55
:101DD00020346179012D09D00A0702D54207920FFC
:101DE0000FD0CA0625D5020709D522E0CA0702D0BE
:101DF0004207920F05D08A0705D5020703D40820B1
:101E000070BD052070BD490707D5C00709D0E1792D
:101E1000304609F0D3F95F2805D02079C00704D0F7
:101E200005E00F2070BD0C2070BD022070BD0020A9
:101E300070BD890607D5C007F3D0E179304609F0B7
:101E4000BDF95F28EFD02079810701D4022D07D09A
:101E5000410701D4042D03D00007E8D4082DE6D1B2
:101E6000032070BD00B500F071FE002805D085226A
:101E700001699201114200D0002000BD10B5084850
:101E80000649416107490723CA691202120A44043C
:101E90002243CA6100218161036110BDFE7C000004
:101EA00000E000E004ED00E0014800687047000039
:101EB000CC02002003490A680B689B1A8342FBD3BB
:101EC00070470000CC02002010B507F047F805F07D
:101ED000D5FF0DF0A9FC012801D100F033F8C04670
:101EE000C04600F087F910BD7047000070B5134977
:101EF00009220968120200208B18AC22525C19E0FA
:101F000060249D6E44432C195C252D5DED060FD594
:101F10000B480818C030428A018A608905F016F91A
:101F20003A2804D04034207FEF210840207770BD4C
:101F3000401CC0B28242E3D870BD00007403002090
:101F40005808000010B5FFF7D1FF10BDFFB50746D8
:101F5000464881B000880D464549092209681202A9
:101F600040078A18400F926E602358431418414866
:101F70000E180DF059FC002822D0142D04D0152D78
:101F800020D0072D59D05CE02146039804F0B9FA1F
:101F90000121206989040843214640312061087FDE
:101FA000022210430877820609D56279520852004E
:101FB0006271DF2210400877002F4ED151E00120DE
:101FC00005B0F0BD25464035287FC007F7D0214633
:101FD000039804F096FA204604F066FA002825D00B
:101FE000A888E988884200D30846E881698AA88AD7
:101FF000814200D2084668832A8AE98A8A4200D24E
:10200000114629836A882889824200D21046C9086D
:102010000E3989B26881884200D30846A8810498A5
:10202000006801214906084304990860287F400898
:1020300040002877002F10D113E00398C0781428AF
:1020400002D0002005B0F0BD4034207F04214008BC
:10205000400008432077002F03D00820C036F073DB
:10206000ADE70820C036B073A9E70000C00000202B
:10207000740300205808000010B5FFF767FF10BD7B
:10208000002101E000BF491C8142FBD370470000E2
:10209000F3B58BB005461C2248A103A8FEF782F8D1
:1020A000684603F0FFF909240126E406002D67D0F5
:1020B0004420694688764848017A314301724C20B1
:1020C0006946C87520200875B22048775B2008A9AA
:1020D0000870424A906A4249030C8B420AD108AF09
:1020E000FB788F273B4008AFFB70FB784007400E22
:1020F0000343FB70506A020C8A420AD16B465A7C39
:10210000CF231A406B465A745A7C8007800E0243D4
:102110005A7432484038006B020C8A4209D108AA2E
:10212000D17889088900D170D1788007800F014368
:10213000D1706946C87DFB2108406946C87548785A
:10214000897800010843122808D308A9C878042117
:10215000084308A9C870C878FFF736FA03A8012118
:1021600080B209044018E060E068C003FCD469460E
:102170004878897800010843122801D309F050FDFE
:102180001849088B0028FCD00E8317208881002076
:1021900008610C98002806D02169102001402269AE
:1021A00002408A42FBD0002D02D00F491520087052
:1021B0000F490E4808600DB0F0BD0000023F00025C
:1021C0003E30023C20023B4C023A400239B202341B
:1021D0005B02350B0000000000002040C00700102B
:1021E00055AA0000000010480000C040CCBCECFC28
:1021F00014000020F8B5104E30682030C57D002D49
:1022000019D0002409273F0210E0E9070BD0C019BC
:10221000816E6020604308184030417F204604F002
:10222000CDFD002807D06D08641CE4B23068AC21F5
:10223000095CA142E9D8F8BD74030020F3B581B070
:10224000984A012101A805F0C4FC974C04222060A3
:10225000432101A805F0BDFC01272168FF02C9192F
:1022600008640422432101A805F0B3FC216804227C
:10227000C9194864FF21843101A805F0AAFC21682E
:102280008A4DC9198864A97F0C2201A80B3105F079
:10229000A0FC13212268C9015118C860A97F20221F
:1022A00001A805F096FC0926216836028919C8673D
:1022B000A97F102201A805F08CFC13212268C90116
:1022C000511808602822052101A805F082FC13217D
:1022D0002268C901511888603022052101A805F043
:1022E00078FC13212268C90151184860FA100121B5
:1022F00001A805F06EFC13212268C901511848613C
:10230000A97F602201A805F064FC216820228919B8
:102310008866A97F01A805F05CFC21688919C86658
:10232000AA8B012101A805F054FC0F212268C901E4
:1023300051188863298B282201A805F04AFC0F2137
:102340002268C90151180863698B302201A805F081
:1023500040FC0F212268C901511848630C22012159
:1023600001A805F036FC21680C2289194866012174
:1023700001A805F02EFC216828228919496E886081
:10238000284620300090417801A805F022FC216801
:1023900004228919496E896888600098417801A8EB
:1023A000491C05F016FC216810228919496E8968BC
:1023B0004860A97F01A805F00CFC21680222C91918
:1023C0004863A97F01A805F004FC21680222C9190D
:1023D000C860A97F01A805F0FCFB21680222C91989
:1023E0000861A97F01A805F0F4FB21680222C91940
:1023F0004861A97F01A805F0ECFB21680122C919F9
:102400008861A97F01A8491C05F0E3FB216810221F
:10241000C91908630B2101A805F0DBFB072221681D
:102420001202891808650422802101A805F0D1FB59
:10243000216889190867029ADC204243012101A81A
:10244000443205F0C6FB216889194867029AD820F2
:102450004243012101A82C3205F0BBFB2168F02288
:1024600089198867012101A805F0B3FB104C7C2273
:102470002060A97F01A805F0ACFB21680822C8678D
:10248000032101A805F0A5FB2168282280310860FE
:10249000012101A805F09DFB216880314860019869
:1024A000FEBD0000B809000074030020D007002022
:1024B0007C030020704710B5C001000C00F0ECF95F
:1024C000002010BDFEB572B63F4D082328680146B6
:1024D0004030C2791A43C27162B6002001276C46AF
:1024E000FF0282005218D219D26C52884300401C5D
:1024F000C0B2E2520328F4D372B6C8190021866B29
:10250000816362B6F00702D000200DF0D3FDB00762
:1025100002D501200DF0CEFD700702D502200DF08E
:10252000C9FD300702D503200DF0C4FD002623E0CD
:102530000D281AD2211D254A8000125820469047A6
:10254000002812D072B62868F7224030C1791140B5
:10255000C17162B630E03A2807D21C49231D8000C1
:10256000E8390A58194620469047029829684018C9
:10257000C019C06C2188018071006846415AB000C2
:1025800002902A688018C019C06C028892089200D4
:102590001418028808348A420ED0A27891070BD012
:1025A0009107890F012901D104460834A0788008D9
:1025B000C006E078CFD5BBE7761CF6B2032EDBD39E
:1025C0000DF0A0FCFEBD0000740300206C66051039
:1025D00070B50DF0B1FC114D01242868E40200191A
:1025E000006C40210DF092F929680919C864486C03
:1025F00040210DF08BF9296809190865886CFF21C5
:1026000081310DF083F92B680822191948650448B7
:102610000021181805F059FB70BD0000740300205C
:1026200038080000FEB50646294814460068294AC5
:102630008518C888032806D02346002202210420DA
:10264000FEF702FC42E08968022268460D3105F07F
:1026500038FB326990052ED468460188172903D3C8
:102660005C20405B172801D2172002E0814200D293
:10267000084670800120400202430220326101902E
:10268000134839210068490141183788097C768848
:10269000012349070FD5D902083040182422C06C05
:1026A00002210AF0B5FD002805D08780C6800146CA
:1026B00001980AF099FDA06803260673A0682946D0
:1026C00002225C310D3005F0FCFAE6800020FEBDF0
:1026D0007403002064070000F7B590B000206A463C
:1026E0000D9090826A4A6B4B12680446D218CB88D0
:1026F000022B08D0002218210420129BFEF7A4FB15
:10270000002013B0F0BD8B6800205E7B0A900B9018
:102710008888303201920990002701980BF07CFAEA
:10272000054620E028680890A9880998814219D1B7
:10273000A968022207A80D3105F0C3FA002F01D1C4
:102740006846878B6846808B87420BD12946019863
:102750000BF0AFFA002028600A98002811D00B98DF
:1027600005600B95089D002DDCD1002FD4D1129867
:1027700019218068017301211298012EC18002D0B5
:1027800081E00A95EDE702A90AA8FEF78AFB002876
:1027900079D069460A891821129BFEF755FB00265D
:1027A00071E081680546022202A80D3105F089FA20
:1027B000012E66D16846008901F018FC0146684682
:1027C0000EAA008902F0B6FD0E9C1099204600F07A
:1027D0009DF80D9055E02F68012E3FD1002F06D0B7
:1027E000B968022205A80D3105F06BFA02E000205D
:1027F00069468882A968022204A80F3105F061FAAF
:10280000E8880D99401F80B20090208CA26948434F
:1028100069461018098A009A43180921284605F0CC
:102820002FFC2220005D012804D16846018A00980F
:102830000818E08368460189808A81420ED0208C86
:102840000D99A26948431018002101900091109839
:10285000E38B0188A28B02200AF08CFE0A9908689B
:102860000A90002008600A99002900D10B900121EC
:10287000284605F0A9FC69460889898A884202D160
:102880003D46002DA7D10A9800288AD139E70000DB
:10289000740300206407000000B508490968084A6D
:1028A000914209D14006010C06483F220281816114
:1028B0001121018000F022F800BD0000140000206A
:1028C000CCBCECFC0000104000B5094A1268094B72
:1028D0009A420BD1084A3F23138180089061064831
:1028E000403001603320108000F008F800BD000087
:1028F00014000020CCBCECFC000010400248018A0F
:10290000C907FCD0704700000000104030B50246F7
:1029100023239B5C0020012B1AD112890D4B9A4274
:1029200016D10D4A092312681B02D318A032DB6EA0
:10293000127B0AE045010C885D5B24052D05240D02
:102940002D0DAC4204D0401CC0B28242F2D800200F
:1029500030BD00000229000074030020F7B578485C
:102960000F460068774988B04418F888072804D2D1
:102970000022062104200A9B2AE0B9680222684648
:102980000D3105F09EF9B968022201A80F3105F05A
:1029900098F9B968022204A8113105F092F9F88873
:1029A000C01F80B2039068460288808882420CD89B
:1029B000002A0AD00898002142880A9806F099FD5A
:1029C000002808D045200BB0F0BD062101200A9B4D
:1029D000FEF73AFAABE00A980721806808340173E1
:1029E0000121684601810594008801F0FFFA050085
:1029F0007CD086E06846008A0522D202904202D04E
:102A0000521C904226D168460088814278D32946DC
:102A10000B2208313846039B05F0D0FB69466A8DCE
:102A2000098A8A426CD10399022901D0102967D101
:102A3000002865D12A462846296A2832203081425A
:102A400002D06B6A1C3300E0134602A90A98FEF715
:102A50000EFA55E02E462C6A2036B4424ED14FE095
:102A60006946A08B0988884247D36946898888428D
:102A700057D82320005D01283FD120460899FFF751
:102A800045FF218CA269414351180B223846039B14
:102A900005F094FB06900898012200882146000565
:102AA000000DFEF77DFB01466A462089128A90429E
:102AB00023D1002921D1E28B03998A421DD10699A5
:102AC00000291AD108996A4649881289891A042965
:102AD00027D322461C491C32884208D12068B042C4
:102AE00005D00089884202D02468F7E719E0234620
:102AF0001C3302A90A98FEF7BAF92468B442AFD190
:102B00002D68059885420CD06846298D80888142C1
:102B100007D808986A4640881289801A042800D38A
:102B200068E768460089012803D90A99C88000200F
:102B300049E76846028806210A200A9B48E7000008
:102B400074030020640700000328000010B50D493D
:102B500000050B68092109025918CA6E0021000DF1
:102B6000A0331B7B0AE04C01145B2405240D844236
:102B700002D14801801810BD491CC9B28B42F2D85D
:102B8000002010BD74030020FFB589B00024054665
:102B90000794D0881646052804D000220421084650
:102BA0000C9B20E0B168022208A80D3105F089F8DD
:102BB000B168022268460F3105F083F86846028C3E
:102BC000008882420CD8002A0AD00A980021428844
:102BD0000C9806F08EFC002808D045200DB0F0BD02
:102BE000042101200C9BFEF72FF9B9E06846008C08
:102BF00001F0FCF9060076D0083504950498864269
:102C000072D06946308D098C884230D36946098874
:102C100088422CD8002C0AD1012107910C9805215B
:102C20008068022401730C980799806841730A98A0
:102C30004088001B042857D30798012854D1201D31
:102C400081B23346283302220C9805F011FBA01DF7
:102C500081B233462A330222A41C0C9805F008FBEB
:102C60006946A41C308D0988A4B2884274D03746C6
:102C7000356A2037BD42C1D060E06946A88B098C17
:102C800088425AD369460988884265D8002C36D0D4
:102C90002320415D0798814260D10A984088001B3B
:102CA000042802D30799012904D0122856D3079883
:102CB000022853D1201D81B22B461C3302220C98CE
:102CC00005F0D6FAA41C0798A4B201280DD0201D47
:102CD00081B22B46083310220C9805F0C9FA204621
:102CE000103084B229E03DE036E0201D81B22B4651
:102CF000083302220C9805F0BBFAA01CF1E7232050
:102D0000415D07910C9805218068022201730C989F
:102D10000799806841730C98294680681C310E30F1
:102D200004F0CFFF079901290CD02B46083310225D
:102D300008210C9805F09CFA14242D68BD429CD102
:102D400036685BE70C98294680680222083110300B
:102D500004F0B7FF0624F0E7002C03D00C98C480E1
:102D600000203BE76846028C04210A200C9B3AE7CE
:102D7000064909220968120289188008C96E4001B3
:102D800008180188002900D1002070477403002032
:102D900070B50C460B4E81000B4832680D180123AC
:102DA0002032D37721462846FFF78EFD2868002180
:102DB000844201D1084600E0FB2032682032D177FE
:102DC00070BD0000740300200000041038B5184ADC
:102DD00014682246BA32AE34A378DD0701D0012947
:102DE0000AD05B070CD501290AD0217949070BD5F8
:102DF000E17A002905D007E0E07880210843E070FF
:102E000038BD0121E172508020794106090FF7D0C9
:102E10007821084069460870002048706A460221FF
:102E200042200AF061FB207987210840207138BDDB
:102E300074030020F8B5054600276846077015485A
:102E400046260468AE3420798006800F03D0002126
:102E5000084603F0B7FCA078400718D520794C212C
:102E6000084214D10023287E6A46194600F0E4F98E
:102E700000280DD16846007828762F74284603F084
:102E8000C5F9060003D1207940210843207130465E
:102E9000F8BD00007403002038B510480021046814
:102EA0000846AE3403F08EFC694648702079C107AD
:102EB00004D001216A46117088432071C0B2810795
:102EC00005D502216A461170FD21084020710221BA
:102ED0006A4608460AF008FB38BD0000740300206B
:102EE00010B5FFF7D9FF10BDFFB50C4678A103C997
:102EF00095B001910090002108A801730321C90237
:102F000068464186012108A8734E0174356817464A
:102F1000AE3502F039FC002808D1704930684018FD
:102F200002F07CFAA878002802D0462019B0F0BD43
:102F30000BA8159900F0D5FA0028F7D1072010A9A1
:102F40000871012C05D0022C0AD0002C0ED0422092
:102F5000ECE708A8017B1020014308A8017305E0F5
:102F600011A90BA800F00AFB0028DFD110A80279F4
:102F700001230CA9284600F0EFFE00287ED1022292
:102F80002946189804F09DFE2988684681811521FC
:102F9000490201820784012686734E2108A88170A8
:102FA0000024C470067107214171867103A902A82B
:102FB00000F088FC002861D1022202A91E9804F0CA
:102FC00080FE082F02D26846478502E00820694645
:102FD000488569460C850B4628880AAA098901F0AC
:102FE0001BFF00286DD13E496846018202270784F5
:102FF00008A8847103A902A800F064FC002860D12D
:10300000022202A91F9804F05CFE6846047069461B
:1030100044704F850B4628880AAA098901F0FCFEF6
:1030200000284ED108A8007BC00723D02C49684651
:10303000C91C01820821018408A88770047103A9B2
:1030400002A800F03FFC00283BD1FF216846C17177
:103050008171C17081704170017044710471694661
:10306000082048850B4628880AAA098901F0D4FE61
:10307000002826D108A8007B800600E021E022D5A8
:103080002988684681811649A531018206848673A4
:1030900008A88770C470047107214171847103A965
:1030A00002A800F00FFC00280BD169460E700C85B9
:1030B0004E850B4628880AAA098901F0ADFE002832
:1030C00001D0472032E708A8007BA87000202DE738
:1030D000626C75656E72672174030020330700000F
:1030E000012A0000034800210068AE30C1708170E1
:1030F000704700007403002070B50D4B1C68AE349F
:103100002379DD0612D45B0710D533280ED1E07A7F
:1031100002280BD10420107000205070C9B2022088
:103120000AF0E2F92079FB210840207170BD00000F
:103130007403002038B50246174801240068AE30F9
:10314000022A1FD0052A03D0072A07D00B2A20D134
:10315000084609794088FFF739FE1AE00079002413
:10316000020600D50124820703D1C20601D48006DD
:103170000FD5084600216A461170694609F062FBC6
:10318000044606E08178490703D50179FB22114006
:103190000171204638BD00007403002010B50948B5
:1031A0000468AE34E07880070BD5002003F0F8F90E
:1031B00002200AF011F9E07801210843FD210840BE
:1031C000E07010BD740300200FB410B5079C0128F7
:1031D0002DD1684680891749884210D103A80FC8AD
:1031E00000F0F2F900281DD107F002FBFA281ED0EA
:1031F00001281CD92078F3210840207017E00D49E0
:10320000491C884208D0C91E884205D0491C884202
:1032100002D0C91C88420AD103AC0FCC00F0D4F90B
:10322000002800D0632010BC08BC04B01847002060
:10323000F9E70000022A0000FFB5074673480D4673
:1032400004688FB0AE34A1781E46C80602D5E07877
:10325000C0067DD4880607D5E0788006800F03D0AD
:10326000022F01D0002E73D08806800F06D0022FC7
:1032700008D0032F06D0002E6AD003E0012F01D022
:10328000002FF8D1880603D4002D01D0012D5FD185
:10329000002E06D130200140384602F097FE00286B
:1032A00056D1119900200870A17889068A0F7DD027
:1032B0000CA908A803F01CFC07900DA90AA803F0AC
:1032C00037FC06900798002802D00698002801D104
:1032D000012E58D1022F04A807D002F053F8002E77
:1032E0003CD00798002803D012E008F0EFF9F6E789
:1032F000464F47483B68062208A9181804F0DDFC31
:103300000028386808D04030417E4908490041769D
:103310000698002805D014E04030417E0122114378
:10332000F5E73A4F3A483B6806220AA9181804F014
:10333000C4FC002838680CD04030417EFD2211408A
:1033400041760798002809D00698002806D01AE090
:1033500043E04030417E02221143F1E72B48062230
:1033600003682B4804A9181804F0ABFC0520694633
:103370000873002E02D1084608F0A6FE25480290E8
:10338000684608F056FEA078800611D511980321F2
:1033900001702079C10603D5002D01D0022D1CD16A
:1033A000800605D5012D03D0032D00E018E014D1CF
:1033B000A078C00627D51199012008702079C10690
:1033C00001D5002D09D1810601D5012D05D10006B9
:1033D00019D5002D17D0012D15D0422013B0F0BD06
:1033E000012F01D1002E03D0890F314309D00AE00B
:1033F0000648062203680648611D181804F061FC9F
:103400000120119908700020E8E7000074030020F3
:1034100033070000A0BB0D003EB50CF095FA044642
:103420000CF01EFB082C01D1082813D00A480B49C8
:10343000006806224118684604F043FC684640795B
:10344000400601D5022000E00320012302AA00214A
:10345000FFF7F2FE3EBD00007403002033070000BA
:103460001FB50E480468AE34E078010612D5A17885
:10347000C9070CD0800708D5042069460873684640
:1034800008F022FE022009F0A7FF0020E0704006AD
:10349000400EE07000F04CF81FBD000074030020E7
:1034A0000949B22209681423525CBA311A4208D081
:1034B000498800050905090D000D814201D101204F
:1034C00070470020704700007403002010B503F01F
:1034D00049F810BD02780907090F0A43027000205D
:1034E000704710B5FFF7F6FF10BD000030B50E486D
:1034F00085B005682C46AE352879BA34400711D519
:10350000E87A01280ED1152149026846418001213F
:10351000017060886B46054A00F090FE002801D1DA
:103520000220E87205B030BD74030020FFFF0000E8
:1035300010B5FFF7DBFF10BD7CB50446E1200D465A
:10354000800003F001FC0BA103C9009001916846C3
:103550000CF056FF012003F049FD002801D0472060
:103560007CBD20782021084320700920287000208D
:103570007CBD00001F0200000000000010B5FFF736
:10358000DBFF10BD10B50446022000F05DF80D48C9
:1035900000210268092000021018A032C36E107BBF
:1035A00005E04A019A5A002A04D0491CC9B288424F
:1035B000F7D810BD48011C52C018026904210A4303
:1035C000026110BD740300201FB582B0002401F019
:1035D0001DFF694601F0BEFE009A6846116A008927
:1035E000203209E023235B5C012B04D10B89834249
:1035F00001D1641CE4B209689142F3D1204606B0BF
:1036000010BD000010B504460146042002F070FB16
:10361000002808D0044805490068401821463C307D
:103620000AF02AFB432010BD740300206407000049
:1036300004490A683D21490151180A7B02430A7373
:10364000704700007403002004490A683D214901C5
:1036500051180A7B02430A7370470000740300206C
:1036600000B51138C0B2FFF783FB002804D0012257
:10367000016952051143016100BD7047F0B502793F
:1036800001239B070168002A02D0062A03D006E026
:103690005C688C4302E05C6800220C435C600021A3
:1036A0000F240568CD40ED07ED0F37D0082909D26A
:1036B000DE6A8D002746AF40BE431746AF403E430B
:1036C000DE622BE00D46083D082D0AD28D0026460D
:1036D000203D1F6BAE40B7431646AE4037431F63D5
:1036E0001CE00D46103D082D0AD28D002646403DB7
:1036F0005F6BAE40B7431646AE4037435F630DE0A5
:1037000017290BD9114E8D002746603D368BAF40EF
:10371000BE431746AF400D4D3E432E83491CC9B2F0
:103720001A29BED341790129D968026809D0914389
:10373000D960817901299968006804D08143996032
:10374000F0BD1143F4E70143F9E700002000004019
:1037500003480068AE3080788006800F7047000014
:1037600074030020F3B597B00D8848880590081DB4
:103770001DC80DAE1DC68C8ACE8A087E1390C869FE
:103780002031019008780090487804908878039060
:10379000C87802900F7900F015FE002817D101209B
:1037A000400284425FD8B4425DD8002F01D1B442B8
:1037B00059D114A9284601F0CDFD002806D115AA3B
:1037C0001499059801F0B6FD002802D0602019B0C8
:1037D000F0BD149D11A92846183003F049FF10A828
:1037E0008088002810D0284612A9203003F040FF1E
:1037F00010A8838800892A8D1818696A10188A8B86
:10380000904203D16120E2E74820E0E715982C4B75
:1038100002899A4227D12322125C012A23D100680F
:1038200000681690139801281FD16846808E2922BF
:103830001202801A030009F058F80604180404075D
:103840000A18022C0FD110E0072C0CD10DE0042C2B
:1038500009D3E00707D1012F07D1A64203D3042ED5
:1038600001D3F00701D04220B1E702980B90039BEF
:10387000049A0A9309920098019A0C970890069668
:10388000059407920DA81DC8019002A81CC01398AA
:103890000B4600902A461699179800F0B1F90028B7
:1038A00095D168460649808EFF31884205D0179829
:1038B000018800200A4601F0FBFF002087E7000096
:1038C00003280000F3B5A5B008881A9088780C4644
:1038D00011901022091D13A8FCF764FCA08A109017
:1038E000A17D68460172E07D0F90207E2090677E6A
:1038F000A07E1F90002006460146129020A801815C
:103900000F20BB4C2390BB4920684018199000F051
:1039100059FD00280BD101211098490288425FD837
:1039200021A91A9801F016FD002802D0602027B0C6
:10393000F0BD2198179001F069FD1A9988420CD1C9
:1039400002A801901698009013AD0ECD1198FFF7C4
:103950003BFC002801D06320E9E76846017A88062D
:10396000800F05D0012012902068A030007B460017
:10397000C80703D01298401CB61C1290080603D545
:103980001298401CB61C129017980DA918301D9063
:1039900003F06EFE6846129C808EA41CA04237D3B2
:1039A00017980EA92030019003F062FE6846018F3F
:1039B00000290DD01798179A6B46406A9B8E128D7E
:1039C0005918808B5118081AA04201D26120AEE725
:1039D0001798846911982568012803D0022803D01C
:1039E0004220A4E7052000E01320E0832A46394660
:1039F0000F98FEF734F8422899D0199FE28B403790
:103A0000788B398B411A109810188019814201DA8D
:103A100048208CE70EA9019803F02AFE6846008F23
:103A20000028179802D0406A808B00E0008D25990D
:103A3000401C0880259801210088A0832598022237
:103A40000088401CA8836C482081204620301790B5
:103A5000C1700021817081711998398B406D4018B7
:103A60006946A061097A0170A06929461C31401C91
:103A700004F027F911980128A0697DD0102213A91C
:103A8000C01C04F01EF92846102213A9083004F0C7
:103A900018F9388B133038832E4620361198F07081
:103AA0001098E8831F98B07010982084109828848C
:103AB0001998398B406D4018A8610021109A04F0C4
:103AC00004F9398B10980818388317990120087168
:103AD00017990020487130716846007A810701D536
:103AE0000121317101070227002902DA31793943B6
:103AF0003171410703D531790422114331714006F8
:103B000003D530790821084330710F9870712098DF
:103B1000B07121461D9803F0D4FD2146019803F0B1
:103B2000B1FD29461D9803F0CCFD2946019803F00C
:103B3000A9FD1298002841D068461A998181A18B6D
:103B4000C18107844784012408A8047122A80A902F
:103B500008A88473239941730F993820014008A85D
:103B600001730721C173002505746846007AC007F8
:103B700008D02248694600E02BE0088203A924A867
:103B8000FFF7F0FD6846007A8006800F07D01B48DB
:103B90006946401E088203A924A8FFF7E3FD684692
:103BA000007A00060AD5292109026846018208A880
:103BB0004473057303A924A8FFF7D4FD2598018851
:103BC0001298401C081882B2002001F071FE0020FB
:103BD000ADE6022213A9C01C04F073F828460222A5
:103BE00013A9083004F06DF8388B401D53E700002E
:103BF000740300206407000003280000032900006C
:103C0000FFB55248524A006887B08218069210AA3F
:103C1000109B0126169F9288012B04D14D4B9A428E
:103C200001D1A030067B069D34464035688B2B8B36
:103C30007C43C31A099820300390A34222DA48201B
:103C40000BB0F0BD2320405C012819D108896C46D7
:103C5000208098420CD03F4C641EA04208D0641CC7
:103C6000A04205D0641CA04202D0A41CA04207D1EF
:103C7000384CFF3CA04201D0904201D16220DFE7E6
:103C8000096801E029231B0203988142DAD10998CF
:103C90001B99846918982246FDF7E1FE4228CFD08F
:103CA0001C98012804D11598874201D24220C7E709
:103CB0001598E083204620301C9905908170278458
:103CC0000A98808B401CA0831098012814D02046AD
:103CD000102211A9083003F0F4FF05991098C8705C
:103CE0000698298B406D4018A061298B3846704397
:103CF0000818288300250FE011A80FC808340FC446
:103D0000183CEAE72846A16978430818159A1799DC
:103D100003F0D7FF6D1CEDB2B542F3D305991898A7
:103D2000487105991998087105991A988871099828
:103D30002146183003F0C5FC2146039803F0A2FC8D
:103D40000798A18B018000207AE70000740300200F
:103D50006407000002290000FFB58FB014460E78FA
:103D6000102205A8891CFCF71DFA4F484F4900682E
:103D7000451800F027FB00281ED1002C57D0012E3B
:103D800009D16846808A4A49884204D12846A968F0
:103D9000083081424BD12846103029690390814276
:103DA00009D00AA9284603F063FC6846018D601E0D
:103DB0000D90814202D2482013B0F0BD2846083051
:103DC0000CA9049003F054FC6846008E002814D01F
:103DD000EF680AA93846183003F04AFC384620300C
:103DE0000CA903F045FC6846398D008D091868461A
:103DF000008E401C081887B200E001270120000453
:103E0000C01BA04201D26120D6E72C69286801902E
:103E10001298012802D0022803D008E00520C00231
:103E200000E024486085012E03D0022E05D04220F8
:103E3000C2E720460830022202E020460830102265
:103E400005A903F03EFF20463146203006460173A7
:103E50000F98214607802785039803F032FC2146FE
:103E6000049803F00FFC27461837E7616662A761E4
:103E700026620D9884B20BE02846019903F021FCDC
:103E80003846019903F0FEFB2868641EA4B2019035
:103E9000002CF1D10F9801880D98081882B20020EB
:103EA00001F006FD002087E774030020640700008E
:103EB0000118000001280000FEB58C68CD88267B23
:103EC000012E01D00020FEBD4126052D01D01E701F
:103ED00019E0247C0A2C00D01E70002A0DD08968BD
:103EE000052268460C3103F0ECFE6D1E00AAA9B253
:103EF00032200132FFF700F905E000880A4601464A
:103F0000022009F005FC4120FEBD10B5102100F093
:103F10002BFD10BDFFB589B0074646261D7810223F
:103F2000991C05A8FCF73EF9012D04D0022D02D002
:103F300042200DB0F0BD3846FDF794FF040037D0A5
:103F400020223946002004F0E3F807002FD019485A
:103F50006946088001200490394620460B9B0A9A46
:103F6000FDF710FA060004D00021384604F02CF9C1
:103F70001EE00B98A081A068012D0FD0102205A98A
:103F800003F09FFE25710121206949030843206148
:103F90000948A0613846FFF735FB09E010220749C0
:103FA00003F08FFEA068022205A90C30E8E7642622
:103FB0003046BEE7032800000B3F041000670510E1
:103FC000024608480849006841188868083103E03B
:103FD000038D934202D200688842F9D1884200D111
:103FE000002070477403002064070000034610B5EA
:103FF0000E480F49006841188868083103E0148DA5
:104000009C4203D8104602688A42F8D18A420CD1F9
:10401000018D994209D20146026A20318A4203D0B9
:10402000416A898B994200D2002010BD74030020A0
:1040300064070000024610B50B481205016809200C
:1040400000020818C36E0020120DA031097B07E0A2
:1040500044011C5B2405240D944203D0401CC0B2D3
:104060008142F5D810BD000074030020F7B5054665
:104070001746019809F0D0FD2E050446360D0CE0D8
:10408000A0882568B04207D12146019809F011FEA9
:104090003946204604F098F82C46002CF0D1FEBD9D
:1040A000F0B58BB000206349029063480A68141889
:1040B00072B610464030C57902231D43C57162B601
:1040C00025464035287AC0077DD009200002101807
:1040D0000026C76E49E071017A5A002A43D0C919F7
:1040E000069109694A021ED48A0226D5022104914A
:1040F0000699012309880905090D03913921490110
:104100004118097C89070ED5D902083040182322AE
:10411000C06C022109F07CF8010004D0039A8A8067
:10412000049809F061F8069800880090069800F05D
:10413000CBF8009807F0C0F815E0480713D50698AB
:1041400000880005000D07F049F8002805D1069801
:1041500000880005000DFDF78FFC06990420096911
:10416000814306980161761CF6B23248AC210068A2
:10417000095CB142AFD805F0B9FB204624300646B1
:1041800009F090FD012802D0012005F0B3FA204685
:10419000183009F087FD012802D0002005F0AAFAA6
:1041A0003C34204609F07EFD01280FD002A92046AC
:1041B00009F0A1FD0420029901F09AFD0028F0D039
:1041C0002046029900E032E009F043FD287A00061B
:1041D0002DD5304609F066FD012828D1002003F0D6
:1041E0006BFFA98B23314909491CC9B2FBF7C4FFF6
:1041F00000281CD00F4D044628680123D90208303E
:10420000401842263822C06C314609F001F80100FE
:104210000DD000228A80CC80304608F0E5FF3D2199
:104220002A68490151180A7B802082430A730BB027
:10423000F0BD00007403002064070000FFB589B0E2
:10424000074646251E781022991C05A8FBF7AAFFF1
:10425000012E04D0022E02D042200DB0F0BD38460F
:10426000FDF700FE040024D020223946002003F090
:104270004FFF07001CD005AD04960FCD6D460FC54E
:10428000394620460B9B0A9AFDF77CF8050004D0BE
:104290000021384603F098FF0BE001212069490313
:1042A000084320610448A0613846FFF7ABF900E0FD
:1042B00064252846D1E70000BD42041010B5502106
:1042C00000F0E6FC10BD0000F0B504463B483C4958
:1042D000006885B04518218A890419D50221049106
:1042E000392149014118897C412627880123C907C2
:1042F0000ED0D902083040183122C06C022108F0DB
:1043000087FF010004D08F808E71049808F06CFF45
:104310002946208801221831FFF7A8FE2946208867
:1043200001223031FFF7A2FE2946208801222431E4
:10433000FFF79CFE2946208800223C31FFF796FEBD
:1043400020880005000DFFF775FE85002946113114
:104350006846017307F0B8FE2946123168460173BA
:1043600007F0B2FE294613316846017307F0ACFE30
:1043700068461435057307F0A7FE208800F03CFA64
:10438000208801050D48090D02681320C00110188E
:10439000028A914201D100210182E069002802D005
:1043A000012103F011FF202200212046A56803F01F
:1043B0008CFC1720A560608005B0F0BD7403002060
:1043C0006407000010B50B480B49006844184034DE
:1043D000207AC00709D0002003F06EFE217A8907F9
:1043E00001D5002803D0002010BD472010BD642057
:1043F00010BD00007403002064070000F0B55FA04A
:1044000099B000685E4915905E4A086884180922D0
:1044100012028218D26E2546403514922A7AD207AB
:1044200002D0622019B0F0BDAA8B01235B029A4230
:1044300001D9AB8303E0172A01D21722AA83149A69
:10444000A0301392067B0DE0761EF6B21398710130
:104450000F18B8680F9038462022002103F035FC71
:104460000F98B860002EEFD120460830E0606460FD
:10447000A06024600830139060612061FF22002159
:10448000083009F0DEFB2046FF220021243009F02D
:10449000D8FB2046AA7F0021303009F0D2FB20460D
:1044A000FF2200213C3009F0CCFB00222A7210468A
:1044B0001721334B05E0149E4701BE19401C718043
:1044C000C0B21E68A036367B8642F4D8002028830E
:1044D0002F8C688C0026149008E02820E16C704333
:1044E0000918204603F0CEF8761CB6B2BE42F4D3CB
:1044F000002608E03020216D70430918139803F05E
:10450000C1F8761CB6B214988642F3D30120FFF7A7
:104510009BF80124684604701B494180234604220D
:1045200069460CA8FFF718FC002822D16846018EC6
:10453000818216490183042606858475202108A8F6
:1045400081720024C472047307214173847305A926
:104550000DA8FFF7B7F900280BD1684604874687F6
:10456000818E15AB0EAA008E00F056FC002800D1FB
:1045700058E700202872472054E700000000FFFFA2
:10458000740300206407000001180000052A0000E1
:10459000F8B5044683480E4600688349471848200A
:1045A000C05DC0076FD0B088FEF7D0FA0546012C79
:1045B00002D0002C68D0F3E0002D04D02869410718
:1045C00003D54520F8BD0121C7E0B268F188147B0E
:1045D0000029F0D062060AD568888842F3D3D22C2D
:1045E00001D0522CEFD138463146183048E0A106B0
:1045F000890E1E2949D81E2C20D101071ED508215D
:10460000884328612988012007F040FB01213046BA
:1046100003F0DAFD634801230068D902083040182E
:1046200042242D883922C06C214608F0F1FD01009A
:1046300003D08D80204608F0D7FDB1E0E1070BD014
:104640001D2C1AD01B2C18D0410533D4012189020E
:104650000843EE612861A3E0C00606D52B4602227E
:104660000321422009F050FAADE72988002007F025
:10467000FBFA29691020014329613846314624306C
:1046800009F0FAFA8CE015E016E0298820220020D3
:1046900003F03EFD05000DD00121304603F094FDEE
:1046A0002B46002221460620FCF7CEFB2846FEF7CB
:1046B000A9FF75E04120F8BDB068047B1D2C3CD0FB
:1046C0001B2C43D00021304603F07EFD002D67D027
:1046D000032C46D0052C44D0072C42D0092C40D0C6
:1046E0000B2C3ED00D2C3CD00F2C3AD0112C38D0B6
:1046F000132C36D0172C34D0192C32D0012C30D0BA
:10470000022C35D0042C33D0062C31D0082C2FD0DD
:104710000A2C2DD00C2C2BD00E2C29D0102C27D0CD
:10472000122C25D0162C23D0182C21D0522C1FD07F
:10473000D22C1DD01E2C2FD032E0002D03D0298882
:10474000012007F091FA3146022001E031460120B4
:1047500007F032F9002823D00021304603F034FD61
:104760001EE029691020814329612988002015E075
:104770002869402188432861010511D5FF210131B5
:10478000084328612988022007F06EFA0120296970
:10479000C0028143296103E02988032007F076FAEB
:1047A0000020F8BD740300206407000010B5104A13
:1047B000104B1268D2184032127AD20706D0022863
:1047C0000AD0052804D00B2810D101E0412010BDEB
:1047D0004888FEF7D7FE09E04888FEF7B7F90028B9
:1047E00004D001220169920511430161002010BD2E
:1047F0007403002064070000F1B5FFB085B04720C6
:1048000001900020694608805348544900684718C1
:104810008498FEF79BF90290002874D0B968083795
:104820004FE0684600880D4604AC20186B46022213
:10483000283111F05FFC68460088294620186B4635
:1048400001222C3111F056FC2E462036307B694671
:104850000128098804A809D040186B46102229466F
:10486000083111F047FC01902C6A27E040186B4694
:104870000222F4E76946098804A8401821466B46DD
:1048800002221C3111F036FC6946098804A8401840
:1048900021466B460122233111F02CFC2320005DC0
:1048A00069460128098804A830D0401821466B4683
:1048B0001022083111F01EFC01902468B442D9D1B5
:1048C0002968B942ADD1019800281CD168460088FA
:1048D00081070AD0224A011D11406A4611800A1A36
:1048E00004A908180B2103F0F0F90298008806F0DB
:1048F00075FC002807D1849869460005000D04AABC
:10490000098805F091FF7FB006B0F0BD4018214640
:104910006B460222083111F0EDFB0190208911490C
:104920008842CAD120460299FDF7F0FF4000A169F4
:1049300003906A460918128804A880186B46022260
:1049400011F0D8FB0190A1690398022208180021F8
:1049500003F0BBF9B1E70000740300206407000016
:10496000FCFF000002290000F0B593B00E4604469B
:104970000020694608760190E0690790002827D05A
:10498000C788002F7DD0B006800F03D02088FEF7A7
:1049900087FD019006AB2046019A0799FFF78CFA34
:1049A000412861D0B81E80B2009007988068457B8E
:1049B000002D56D0F006F107039000290FD0022FEA
:1049C0000DD329460098FBF7D7FB002903D006E05A
:1049D000412013B0F0BD062D17D0142D15D0B0070F
:1049E00008D5052F06D30321B8078907C84201D18E
:1049F000022048E070070ED5022F0CD329460098FC
:104A0000FBF7BAFB002902D005E001203BE0082DAE
:104A10000DD0062D0BD00398800F0ED0022F0CD393
:104A200029460098FBF7A8FB002902D005E00420E6
:104A300029E0072D08D0152D06D0B00611D5012D7F
:104A400004D0022D04D00CE008201CE0042500E076
:104A50001225022F05D929460098FBF78DFB002966
:104A600010D0412069460876012120694903884316
:104A70002061019800287DD006AA01213120FEF78F
:104A80003BFBF6E01020810706D57D49B8034018AE
:104A9000070CB800C01C0EE0C0060098294604D5DB
:104AA000401CFBF769FB87B202E0FBF765FB07469A
:104AB000781E6843801D81B205AB0222079803F07F
:104AC000DFFAF0064ED56946A089898A884202D964
:104AD000206941065BD4002041E0072D0AD06843DD
:104AE0000B3082B21023A168079803F067FB0028FF
:104AF00015D031E01022634908A803F0E2F80298CB
:104B00000BABC100081A0B3081B20222079803F0E8
:104B1000B7FA102208A8A16803F0CFF8E7E70198D8
:104B200000280ED002980CAB6843801D81B22A4643
:104B3000079803F0A5FA0CAA29463320FEF7DCFA01
:104B40000AE00798009002982B466843801CC2B286
:104B50002188022008F098FD0298401C80B2029043
:104B6000B842BAD33820484F064207D06946A089D8
:104B7000898A00E077E0884204D86EE06846808A3F
:104B8000B8426AD02069410606D5F10604D4012155
:104B90008902084320616CE021882022002003F074
:104BA000B7FA050011D00521F2070120C902002A39
:104BB0000DD06A4611800490908A3B46401C82B218
:104BC00029462046FCF7A3FB37E0452001E7B20762
:104BD00013D5207901280ED01020A26802900192EE
:104BE00000916846808A3B46401C82B22946204696
:104BF000FCF7FEFA21E00220EFE7710701D5234A16
:104C000004E00399890F0DD0204A521C69460A809E
:104C10000490888AA389401C82B229462046FCF76A
:104C2000B1FB0AE0B0060AD56846808AA389401C19
:104C300082B229462046FCF71EFB642808D028468D
:104C4000FEF7E0FC2288304607990EF019FE10E0CE
:104C50000021284603F0B8FAB7E7228830460799C2
:104C60000EF00EFE00E76846027E2188022008F062
:104C700059FE0121E06903F0A7FA0020E061A8E6EF
:104C800000C0FFFF00670510FFFF000002280000C2
:104C9000F0B58BB00D4604460020694608710490BB
:104CA000E669002E16D0A806800F03D02088FEF7F4
:104CB000F7FB049001AB31462046049AFFF7FCF85D
:104CC000412865D0E80708D021883246022008F044
:104CD0004FFA5DE041200BB0F0BD680705D5218893
:104CE0003246022008F008FA52E0A80739D5F088C9
:104CF0006188814205D921883246022008F040F9B6
:104D000046E02069410604D501218902084320615B
:104D100080E021882022002003F0FAF905001ED04F
:104D200021883246022008F02BF9A068801C0EF082
:104D3000A4F86188401E401886B2A0680EF09DF865
:104D40000246334629462046FCF7BDFA2846FEF7C0
:104D500059FCA0683146801C0BF000FC54E0452053
:104D6000B9E7E80614D5F088412702280ED9B168C2
:104D7000801E4D7B80B2854201D9012016E0002DB6
:104D800004D02946FBF7F8F900290FD068460771CF
:104D900001202169400381432161049800282DD01E
:104DA00001AA01213120FEF7A7F92DE0029002208F
:104DB000002703901EE0049800280DD0039805AB4F
:104DC000001D81B22A46304603F05AF905AA294649
:104DD0003320FEF791F907E003980096C2B22B4604
:104DE0002188022008F050FC0398401980B27F1CF3
:104DF000BFB2039002988742DDD3C9E768460279C3
:104E00002188022008F08EFD0121E06903F0DCF921
:104E10000020E06100205EE7F0B5074617480E4627
:104E200000683D2149014018007B85B01D461446AD
:104E3000C00706D003A9384600F08CFA00280AD132
:104E400002E0472005B0F0BD04AA3046039900F007
:104E500071FA002801D06020F4E704992288608864
:104E60000968002A00D0088C32466E4631C60323FA
:104E70003946002000F004F8E4E700007403002045
:104E8000FFB5002099B0239A0B901290054614901C
:104E9000064615901C46DB480B460068DA49229FFF
:104EA00041180391002108910991518806911188B8
:104EB0000A913D2149014018007BC00706D00FA987
:104EC000184600F047FA00280AD102E047201DB03A
:104ED000F0BD10AA0F991B9800F02CFA002801D001
:104EE0006020F4E71998002803D0600701D501205D
:104EF00000E000201390A007800F1C9010981790DE
:104F00002030C078012840D11798C04B01899942C0
:104F1000F9D11798069904680A98228C4118914291
:104F200033D82046203016908078012816D0E08BA8
:104F300004901798806900788006800F7ED00398CF
:104F400040301890007A800778D51C980028F5D05A
:104F5000AE4F0F99FF372031206814E0BA4214D3C6
:104F6000B942DDD80497E4E70389A84A934203D104
:104F70002322125C012A08D0BB4203D12322125CF7
:104F8000012A03D000688842EED134E10590002860
:104F9000FBD09C480921026809025118C96E0027FC
:104FA000009162E0780100990390085A01055AD0F7
:104FB0001999002901D0884255D105997A008B6949
:104FC000511C595C9A5C0902891889B20D918907B4
:104FD00049D002220599FCF7E3F8002804D019987B
:104FE000002840D0652072E7002008A9C8551C9809
:104FF000C00718D0179880690078C00613D50D989F
:10500000C00710D00120C8550543009A03988018A6
:105010004088159A904206D91590009A0398105A24
:105020000005000D14901C9880071CD51798806906
:105030000078800617D50D98800700E083E012D530
:105040000220CA5D05430243CA55009903984018DF
:1050500040881599884206D9159000990398085AF6
:105060000005000D14907F1CFFB266480068A03058
:10507000037BBB4296D8002D65D01898007A0006B5
:105080005FD460480168092000020818C16E002042
:105090001BE042018E5A360515D0AE070BD55618C7
:1050A0003669B7070DD408AF3F5CBF0703D5360795
:1050B00001D546200BE7EE0705D05218127CD20727
:1050C00001D0432003E7401CC0B28342E1D81598C9
:1050D000C01E86B20498864200D90646A8070FD59E
:1050E00020220020149903F013F8129000287DD09C
:1050F000F01C82B20021129804F0F4F9002811D1BA
:10510000E80720D020220020149903F001F80B902A
:10511000002807D0F01C82B200210B9804F0E2F9BD
:10512000002810D08020FEF78FFA1298002802D0B5
:10513000002103F049F80B98002802D0002103F069
:1051400043F86420C3E6A1690A98069A08182499CE
:1051500002F0B7FD16988078012801D10498E08309
:10516000002D46D0274B0920196800020818C16E8F
:10517000002008AA0CE04301CF5A3F0506D05F1873
:10518000BC463B69175C3B4367463B61401CC0B271
:105190001C4B1B68A0331B7B8342ECD8A8070DD5A2
:1051A00012980090F01C82B221461C310220A369A3
:1051B000FCF720FC0220129906F0FEFBE80718D04D
:1051C0000B980090F61C2146B2B21C310120A36955
:1051D000FCF710FC1398002805D00B988021C07CA8
:1051E00008430B99C87401200B9900E005E006F014
:1051F000E3FB00206BE6422069E68020FEF724FAFC
:105200009FE70000740300206407000003280000EB
:10521000FFB581B01F4606464625FCF723FE040075
:1052200020D020223146002002F072FF060018D064
:10523000014600972046039B029AFCF7F7F8050009
:1052400004D00021304602F0BFFF0BE001212069AD
:105250004903084320610548A0613046FEF7D2F9B2
:1052600000E06425284605B0F0BD0000715204102E
:1052700010B56021FFF70CFD10BD10B51C4613469C
:105280002246FFF7C5FF10BDFFB581B015460646A3
:105290004624FDF75BFC070025D00298002803D0C8
:1052A0007888C01EA84201D242241CE011483D214A
:1052B000006849014018007B000602D5642005B053
:1052C000F0BDE81C81B2304602F014FF06000CD09D
:1052D000014600953846049B029AFCF78EF8044676
:1052E0003046FEF78FF92046E9E764248020FEF778
:1052F0009FF9F8E774030020F0B58468083015E0E2
:10530000258D8D4203D1146018600120F0BD264622
:105310001C602036256A06E0AF8B8F4202D1022046
:105320001560F0BD2D68B542F6D124688442E7D1FE
:105330000020F0BD10B50B6A203106E09C8B844242
:1053400002D10020136010BD1B688B42F6D14120B2
:1053500010BD000010B5094A094B1268D2189368B5
:10536000083206E01C8D844202D100200B6010BD83
:105370001B689342F6D1412010BD00007403002049
:1053800064070000F8B5204E04463568AE3500F0DD
:10539000D1F92070000A607000F0CCF9A070000A0A
:1053A000E07000F0C7F9C2B28004830E22710021C0
:1053B00063710846275C401C7918C0B289B2062880
:1053C000F8D30029E3D02078FF280CD16078FF289B
:1053D00009D1A078FF2806D1E078FF2803D1FF2A61
:1053E00001D1FF2BD3D00622691D204602F065FCB7
:1053F0000028CCD0316806222046783102F05DFCCE
:105400000028C4D0F8BD00007403002002480068E2
:10541000AE300088704700007403002010B50349C7
:1054200006220968B33102F04CFC10BD7403002061
:10543000F7B5164600241CE00098114900194018E1
:1054400081080198890000194278057812021543F5
:105450008278C0781204000602430948154340428E
:105460000F1829463846FDF72FFA3868854204D1CF
:10547000241DB442E0D30020FEBDFB20FEBD000091
:105480000000FCEFF0B50E460746002407E03D198A
:1054900000F050F92870000A6870A41CE4B2B4420D
:1054A000F5D3F0BD30B5124A114C283A114BD169F1
:1054B0000906090F4170D2691207120F8270226823
:1054C0000D4D01244260AA4208D11A680B4B9A4242
:1054D00001D1042200E00222027000E004700029E1
:1054E00000D144700649898A491C8900816030BD19
:1054F000280090401C00001041A0000244A000F2CF
:105500000000104010B5012818D8072916D80C4AF9
:10551000126813462033187759778007C906000EA2
:10552000090E01430020074BA03204E08401E41877
:10553000A172401CC0B2147B8442F7D8002010BD79
:105540007403002000010020074A914202DC52420D
:10555000914200DA1146FF22993251430A12511842
:105560000A14511808187047FFFF4F0010B50920A2
:10557000C00600690002000A06F0D2FD10BD7047A7
:10558000F0B54F4F0446386885B078300D46164662
:10559000002C10D0062C14D0082C0FD0182C0DD0B5
:1055A000282C0ED02A2C0CD02C2C0DD02E2C0ED02A
:1055B000D02C47D048E0062D0FD045E0102D0CD060
:1055C00042E0022D09D03FE0012D06D03CE0062D3F
:1055D0003AD17179890903296FD100192A463146D8
:1055E00002F06FFB2C2C26D13078002823D00AF053
:1055F0001BF9012822D01B201F304009401C41000C
:105600004118012002F046FD0AF00EF9012817D0DA
:105610001B201F304009410041182A484078401A99
:10562000C01EC1B2002002F035FD3868F9224030BA
:10563000017811400170002005B0F0BDFB20DBE7D0
:10564000FB20E6E7012D04D00AF0EEF8012804D093
:1056500005E0107805F0ECFFEEE7D12C02D02F2CFE
:105660001ED02AE0082D28D102223146684602F0D9
:1056700028FB0222B11C01A802F023FB0222311DEB
:1056800002A802F01EFB0222B11D03A802F019FBC2
:10569000684683890289818800880DF05BFCCBE72E
:1056A000012D0AD13078002807D0082805D24922D8
:1056B0003968520189188876BDE71220BCE70000DE
:1056C00074030020F007002070B5184C07212068F3
:1056D0000902411800260E77154B4E770622FF214E
:1056E000C01802F0F2FA392520686D0140190671E0
:1056F000202141710AF098F8012814D01F20216858
:105700000B4B491988712068093307220021C01802
:1057100002F0DBFA064B206810330522FF21C01887
:1057200002F0D3FA70BD5F20E9E7000074030020A7
:105730001E07000000210B200007026852070DD54C
:10574000026804239A430260026808231A43026035
:1057500004E0491C052901DD0020704742689207DA
:10576000F7D54168C907FCD0806880B2704710B592
:10577000FFF7E0FF0446FFF7DDFF0004201810BD2F
:10578000FEE7704770470000F0B5454C13252668CA
:10579000ED01701980690027416B4248AE368DB02B
:1057A000814242D006216846FFF76CFE694648797F
:1057B000C021084369464871206806224019806963
:1057C0002430FFF735FE0746102105A8FFF75AFEE3
:1057D000206810224019806905A9001DFFF728FEE6
:1057E0000743102109A8FFF74DFE20681022401939
:1057F000806909A91430FFF71BFE0146394313D114
:105800002068294940198069264F40188008810086
:105810002648081839460490FDF756F804980068A1
:10582000B84201D1002700E0FB27226850198069A7
:10583000A6322430019006200146009000200AF094
:105840009AFF002802D12068A6300190701D009AAE
:10585000019902F036FA2268102631460020803283
:105860000AF089FF002807D020683246411989696B
:105870008030091D02F025FA22683146002090325E
:105880000AF079FF002807D020683246411989695B
:105890009030143102F015FA38460DB0F0BD00001A
:1058A00074030020AAAAAAAA3400FCEF0000041086
:1058B00030B50F4B0F4D1B6804465B1940331B7A04
:1058C000412085B09B0710D56B469981DA81002075
:1058D00018820420588203AA04A96D4607C5022332
:1058E0001A4601212046FFF7CBFA05B030BD000073
:1058F0007403002064070000024600200146535C48
:10590000002B00D00120491CC9B20629F7D37047EB
:10591000024800682030C07F7047000074030020F8
:1059200070B50E46054601462022002002F0F0FB2D
:10593000040023D0284600F06BF8050027D0287912
:10594000B04224D1A87880071FD4A0680121017338
:10595000A06800214673A06802268673A068C17300
:10596000A0680174A06841740620E08021460520EB
:1059700000F0BEF9002803D0412509E064250BE0C2
:10598000A8783043A870002506E0462500E04225AF
:105990000021204602F018FC284670BD7CB5144654
:1059A0000D4600281ED1052D02D00B2D07D011E089
:1059B000627921796088A31D05F082FD0AE0214605
:1059C0001231881F01910090627921796088A31DAE
:1059D00005F08DFD21462846FEF7E8FE21462846C3
:1059E00000F0B4FA7CBD70B505460C46002000F00E
:1059F0000FF800280BD02905090D018000218170C6
:105A0000002C01D10821817001210171C17070BD8C
:105A100030B502460A4801230068DB020021C318A2
:105A2000A030047B07E0586B0D01401905889542B2
:105A300004D0491CC9B28C42F5D8002030BD00000A
:105A40007403002030B50A49012309680246DB02CD
:105A50000020CB18A031097B07E05C6B05016419BD
:105A60002488944203D0401CC0B28142F5D830BD96
:105A7000740300208068017A407A0002081880B21E
:105A80007047000070B50023134A1DE00125ED02A8
:105A900040191901466B0024C81C34541068401981
:105AA000466B081D345410684019406B445210680E
:105AB0004019466B08460830345210680C314019C2
:105AC000406B5B1C4450DBB21068AC21095C99420E
:105AD000DCD8002070BD00007403002010B5024621
